:020000040800F2
:1000000000500020A52900084529000847290008BC
:10001000492900084B2900084D290008000000006C
:100020000000000000000000000000004F29000850
:100030005129000800000000532900085529000834
:10004000ED290008ED290008ED290008ED29000838
:10005000ED290008ED290008ED290008ED29000828
:10006000ED290008ED290008ED290008ED29000818
:10007000ED290008ED290008ED290008ED29000808
:10008000ED290008ED290008ED290008ED290008F8
:10009000ED290008ED290008ED290008ED290008E8
:1000A000ED290008ED290008ED290008ED290008D8
:1000B000ED290008ED290008ED290008ED290008C8
:1000C000ED290008ED290008ED290008ED290008B8
:1000D000ED290008ED290008ED290008ED290008A8
:1000E000ED290008ED290008ED29000800000000B6
:1000F0000000000000000000000000000000000000
:0C01000000000000000000005FF808F1A3
:1001100010B5054C237833B9044B13B10448AFF341
:1001200000800123237010BD88060020000000001D
:100130005058000808B5034B1BB103490348AFF3FF
:10014000008008BD000000008C0600205058000808
:10015000034613F8012B002AFBD1181A0138704707
:1001600081F0004102E000BF83F0004330B54FEA68
:1001700041044FEA430594EA050F08BF90EA020FD5
:100180001FBF54EA000C55EA020C7FEA645C7FEA68
:10019000655C00F0E2804FEA5454D4EB5555B8BF8B
:1001A0006D420CDD2C4480EA020281EA030382EAFC
:1001B000000083EA010180EA020281EA0303362D8E
:1001C00088BF30BD11F0004F4FEA01314FF4801C61
:1001D0004CEA113102D0404261EB410113F0004F73
:1001E0004FEA03334CEA133302D0524263EB43032A
:1001F00094EA050F00F0A780A4F10104D5F1200EC8
:100200000DDB02FA0EFC22FA05F2801841F1000122
:1002100003FA0EF2801843FA05F359410EE0A5F1F6
:1002200020050EF1200E012A03FA0EFC28BF4CF027
:10023000020C43FA05F3C01851EBE37101F00045DD
:1002400007D54FF0000EDCF1000C7EEB00006EEBEA
:100250000101B1F5801F1BD3B1F5001F0CD3490874
:100260005FEA30004FEA3C0C04F101044FEA4452CB
:1002700012F5800F80F09A80BCF1004F08BF5FEA52
:10028000500C50F1000041EB045141EA050130BD32
:100290005FEA4C0C404141EB010111F4801FA4F1D5
:1002A0000104E9D191F0000F04BF01460020B1FA2A
:1002B00081F308BF2033A3F10B03B3F120020CDA62
:1002C0000C3208DD02F1140CC2F10C0201FA0CF040
:1002D00021FA02F10CE002F11402D8BFC2F1200CA5
:1002E00001FA02F120FA0CFCDCBF41EA0C0190405B
:1002F000E41AA2BF01EB0451294330BD6FEA0404A4
:100300001F3C1CDA0C340EDC04F11404C4F120028E
:1003100020FA04F001FA02F340EA030021FA04F3A0
:1003200045EA030130BDC4F10C04C4F1200220FAF7
:1003300002F001FA04F340EA0300294630BD21FA35
:1003400004F0294630BD94F0000F83F4801306BFFB
:1003500081F480110134013D4EE77FEA645C18BFEF
:100360007FEA655C29D094EA050F08BF90EA020F86
:1003700005D054EA000C04BF1946104630BD91EA7E
:10038000030F1EBF0021002030BD5FEA545C05D181
:100390004000494128BF41F0004130BD14F58004C0
:1003A0003CBF01F5801130BD01F0004545F0FE4134
:1003B00041F470014FF0000030BD7FEA645C1ABF69
:1003C000194610467FEA655C1CBF0B46024650EAA0
:1003D000013406BF52EA033591EA030F41F40021CC
:1003E00030BD00BF90F0000F04BF0021704730B552
:1003F0004FF4806404F132044FF000054FF0000127
:1004000050E700BF90F0000F04BF0021704730B5E7
:100410004FF4806404F1320410F0004548BF4042BC
:100420004FF000013EE700BF42004FEAE2014FEA11
:1004300031014FEA02701FBF12F07F4393F07F4FEC
:1004400081F06051704792F0000F14BF93F07F4F1E
:10045000704730B54FF4607401F0004521F0004161
:1004600020E700BF50EA010208BF704730B54FF0E7
:1004700000050AE050EA010208BF704730B511F0EC
:10048000004502D5404261EB41014FF4806404F124
:1004900032045FEA915C3FF4DCAE4FF003025FEAA6
:1004A000DC0C18BF03325FEADC0C18BF033202EB2E
:1004B000DC02C2F1200300FA03FC20FA02F001FA88
:1004C00003FE40EA0E0021FA02F11444C1E600BF27
:1004D00070B54FF0FF0C4CF4E06C1CEA11541DBFDA
:1004E0001CEA135594EA0C0F95EA0C0F00F0DEF8A5
:1004F0002C4481EA030621EA4C5123EA4C5350EA8A
:10050000013518BF52EA033541F4801143F48013DA
:1005100038D0A0FB02CE4FF00005E1FB02E506F06B
:100520000042E0FB03E54FF00006E1FB03569CF0C0
:10053000000F18BF4EF0010EA4F1FF04B6F5007FC6
:1005400064F5407404D25FEA4E0E6D4146EB060638
:1005500042EAC62141EA55514FEAC52040EA5E50C1
:100560004FEACE2EB4F1FD0C88BFBCF5E06F1ED86B
:10057000BEF1004F08BF5FEA500E50F1000041EBA2
:10058000045170BD06F0004646EA010140EA02004F
:1005900081EA0301B4EB5C04C2BFD4EB0C0541EA71
:1005A000045170BD41F480114FF0000E013C00F386
:1005B000AB8014F1360FDEBF002001F0004170BDAA
:1005C000C4F10004203C35DA0C341BDC04F11404C3
:1005D000C4F1200500FA05F320FA04F001FA05F24F
:1005E00040EA020001F0004221F0004110EBD3701C
:1005F00021FA04F642EB06015EEA430E08BF20EA48
:10060000D37070BDC4F10C04C4F1200500FA04F3EA
:1006100020FA05F001FA04F240EA020001F000417C
:1006200010EBD37041F100015EEA430E08BF20EAEF
:10063000D37070BDC4F1200500FA05F24EEA020E37
:1006400020FA04F301FA05F243EA020321FA04F066
:1006500001F0004121FA04F220EA020000EBD3701D
:100660005EEA430E08BF20EAD37070BD94F0000F1D
:100670000FD101F00046400041EB010111F4801F51
:1006800008BF013CF7D041EA060195F0000F18BF02
:10069000704703F00046520043EB030313F4801F3E
:1006A00008BF013DF7D043EA0603704794EA0C0FF8
:1006B0000CEA135518BF95EA0C0F0CD050EA41060E
:1006C00018BF52EA4306D1D181EA030101F000418B
:1006D0004FF0000070BD50EA410606BF10461946B3
:1006E00052EA430619D094EA0C0F02D150EA0136BF
:1006F00013D195EA0C0F05D152EA03361CBF104600
:1007000019460AD181EA030101F0004141F0FE419E
:1007100041F470014FF0000070BD41F0FE4141F422
:10072000780170BD70B54FF0FF0C4CF4E06C1CEA22
:1007300011541DBF1CEA135594EA0C0F95EA0C0FD7
:1007400000F0A7F8A4EB050481EA030E52EA033592
:100750004FEA013100F088804FEA03334FF08055B3
:1007600045EA131343EA12634FEA022245EA1115E0
:1007700045EA10654FEA00260EF000419D4208BF91
:10078000964244F1FD0404F5407402D25B084FEA3E
:100790003202B61A65EB03055B084FEA32024FF4EA
:1007A00080104FF4002CB6EB020E75EB030E22BF47
:1007B000B61A754640EA0C005B084FEA3202B6EB07
:1007C000020E75EB030E22BFB61A754640EA5C00B6
:1007D0005B084FEA3202B6EB020E75EB030E22BF46
:1007E000B61A754640EA9C005B084FEA3202B6EB47
:1007F000020E75EB030E22BFB61A754640EADC0006
:1008000055EA060E18D04FEA051545EA16754FEA67
:1008100006164FEAC30343EA52734FEAC2025FEA85
:100820001C1CC0D111F4801F0BD141EA00014FF014
:1008300000004FF0004CB6E711F4801F04BF0143E5
:100840000020B4F1FD0C88BFBCF5E06F3FF6AFAE01
:10085000B5EB030C04BFB6EB020C5FEA500C50F191
:10086000000041EB045170BD0EF0004E4EEA113114
:1008700014EB5C04C2BFD4EB0C0541EA045170BD1B
:1008800041F480114FF0000E013C90E645EA060E5F
:100890008DE60CEA135594EA0C0F08BF95EA0C0F8D
:1008A0003FF43BAF94EA0C0F0AD150EA01347FF4D5
:1008B00034AF95EA0C0F7FF425AF104619462CE7AC
:1008C00095EA0C0F06D152EA03353FF4FDAE10460F
:1008D000194622E750EA410618BF52EA43067FF460
:1008E000C5AE50EA41047FF40DAF52EA43057FF4F0
:1008F000EBAE12E74FF0FF3C06E000BF4FF0010CFB
:1009000002E000BF4FF0010C4DF804CD4FEA410C5E
:100910007FEA6C5C4FEA430C18BF7FEA6C5C1BD02B
:1009200001B050EA410C0CBF52EA430C91EA030FAC
:1009300002BF90EA020F0020704710F1000F91EA09
:10094000030F58BF994208BF90422CBFD8176FEAD7
:10095000E37040F0010070474FEA410C7FEA6C5CA5
:1009600002D150EA013C07D14FEA430C7FEA6C5CAC
:10097000D6D152EA033CD3D05DF8040B704700BFD8
:100980008446104662468C461946634600E000BF26
:1009900001B5FFF7B7FF002848BF10F1000F01BDF8
:1009A0004DF808EDFFF7F4FF0CBF012000205DF8C3
:1009B00008FB00BF4DF808EDFFF7EAFF34BF012048
:1009C00000205DF808FB00BF4DF808EDFFF7E0FFE1
:1009D00094BF012000205DF808FB00BF4DF808ED32
:1009E000FFF7CEFF94BF012000205DF808FB00BF99
:1009F0004DF808EDFFF7C4FF34BF012000205DF87B
:100A000008FB00BF4FEA410C7FEA6C5C02D150EA60
:100A1000013C0AD14FEA430C7FEA6C5C02D152EAF6
:100A2000033C02D14FF0000070474FF001007047C7
:100A30004FEA410212F5001215D211D56FF4787306
:100A4000B3EB625212D94FEAC12343F0004343EAA9
:100A5000505311F0004F23FA02F018BF4042704784
:100A60004FF00000704750EA013005D111F000400E
:100A700008BF6FF0004070474FF00000704700BFA4
:100A80004FEA4102B2F1E04324BFB3F5001CDCF1B0
:100A9000FE5C0DD901F0004C4FEAC0024CEA5070E8
:100AA000B2F1004F40EB830008BF20F00100704717
:100AB00011F0804F21D113F13872BCBF01F000401A
:100AC000704741F480114FEA5252C2F11802C2F14C
:100AD000200C10FA0CF320FA02F018BF40F00100CD
:100AE0004FEAC1234FEAD32303FA0CFC40EA0C007F
:100AF00023FA02F34FEA4303CCE77FEA625307D1BC
:100B000050EA01331EBF4FF0FE4040F440007047F2
:100B100001F0004040F0FE4040F40000704700BF8C
:100B200080F0004002E000BF81F0004142001FBFA2
:100B30005FEA410392EA030F7FEA226C7FEA236CAB
:100B40006AD04FEA1262D2EB1363C1BFD2184140A0
:100B500048404140B8BF5B42192B88BF704710F036
:100B6000004F40F4000020F07F4018BF404211F0D9
:100B7000004F41F4000121F07F4118BF494292EA41
:100B8000030F3FD0A2F1010241FA03FC10EB0C006D
:100B9000C3F1200301FA03F100F0004302D54942FA
:100BA00060EB4000B0F5000F13D3B0F1807F06D3A7
:100BB00040084FEA310102F10102FE2A51D2B1F19F
:100BC000004F40EBC25008BF20F0010040EA030094
:100BD0007047490040EB000010F4000FA2F1010241
:100BE000EDD1B0FA80FCACF1080CB2EB0C0200FACB
:100BF0000CF0AABF00EBC25052421843BCBFD04019
:100C00001843704792F0000F81F4000106BF80F492
:100C100000000132013BB5E74FEA41037FEA226C55
:100C200018BF7FEA236C21D092EA030F04D092F020
:100C3000000F08BF0846704790EA010F1CBF002054
:100C4000704712F07F4F04D1400028BF40F00040B1
:100C5000704712F100723CBF00F50000704700F0D1
:100C6000004343F0FE4040F4000070477FEA2262F8
:100C700016BF08467FEA23630146420206BF5FEAC9
:100C8000412390EA010F40F4800070474FF00003C9
:100C900004E000BF10F0004348BF40425FEA000C90
:100CA00008BF704743F0964301464FF000001CE038
:100CB00050EA010208BF70474FF000030AE000BF8E
:100CC00050EA010208BF704711F0004302D54042CC
:100CD00061EB41015FEA010C02BF8446014600203E
:100CE00043F0B64308BFA3F18053A3F50003BCFA59
:100CF0008CF2083AA3EBC25310DB01FA02FC634406
:100D000000FA02FCC2F12002BCF1004F20FA02F20C
:100D100043EB020008BF20F00100704702F12002FF
:100D200001FA02FCC2F1200250EA4C0021FA02F260
:100D300043EB020008BF20EADC7070474FF0FF0C65
:100D40001CEAD0521EBF1CEAD15392EA0C0F93EA60
:100D50000C0F6FD01A4480EA010C400218BF5FEA02
:100D600041211ED04FF0006343EA501043EA511175
:100D7000A0FB01310CF00040B1F5000F3EBF49006F
:100D800041EAD3715B0040EA010062F17F02FD2A73
:100D90001DD8B3F1004F40EBC25008BF20F0010056
:100DA000704790F0000F0CF0004C08BF49024CEA6D
:100DB000502040EA51207F3AC2BFD2F1FF0340EAFF
:100DC000C250704740F400004FF00003013A5DDC70
:100DD00012F1190FDCBF00F000407047C2F10002B1
:100DE000410021FA02F1C2F1200200FA02FC5FEA9E
:100DF000310040F1000053EA4C0308BF20EADC70E8
:100E0000704792F0000F00F0004C02BF400010F459
:100E1000000F013AF9D040EA0C0093F0000F01F006
:100E2000004C02BF490011F4000F013BF9D041EA28
:100E30000C018FE70CEAD15392EA0C0F18BF93EA2A
:100E40000C0F0AD030F0004C18BF31F0004CD8D154
:100E500080EA010000F00040704790F0000F17BFDB
:100E600090F0004F084691F0000F91F0004F14D021
:100E700092EA0C0F01D142020FD193EA0C0F03D179
:100E80004B0218BF084608D180EA010000F000407C
:100E900040F0FE4040F40000704740F0FE4040F457
:100EA000400070474FF0FF0C1CEAD0521EBF1CEAF6
:100EB000D15392EA0C0F93EA0C0F69D0A2EB030214
:100EC00080EA010C49024FEA402037D04FF08053AE
:100ED00043EA111143EA10130CF000408B4238BF73
:100EE0005B0042F17D024FF4000C8B4224BF5B1A81
:100EF00040EA0C00B3EB510F24BFA3EB510340EACF
:100F00005C00B3EB910F24BFA3EB910340EA9C007C
:100F1000B3EBD10F24BFA3EBD10340EADC001B01EC
:100F200018BF5FEA1C1CE0D1FD2A3FF650AF8B4290
:100F300040EBC25008BF20F0010070470CF0004C9D
:100F40004CEA50207F32C2BFD2F1FF0340EAC250C8
:100F5000704740F400004FF00003013A37E792F089
:100F6000000F00F0004C02BF400010F4000F013AE7
:100F7000F9D040EA0C0093F0000F01F0004C02BFE2
:100F8000490011F4000F013BF9D041EA0C0195E74B
:100F90000CEAD15392EA0C0F08D142027FF47DAFE4
:100FA00093EA0C0F7FF470AF084676E793EA0C0FD4
:100FB00004D14B023FF44CAF08466EE730F0004CD2
:100FC00018BF31F0004CCAD130F000427FF45CAF62
:100FD00031F000437FF43CAF5FE700BF4FF0FF3CD0
:100FE00006E000BF4FF0010C02E000BF4FF0010C23
:100FF0004DF804CD4FEA40024FEA41037FEA226CEC
:1010000018BF7FEA236C11D001B052EA530C18BF0D
:1010100090EA010F58BFB2EB030088BFC81738BF72
:101020006FEAE17018BF40F0010070477FEA226C60
:1010300002D15FEA402C05D17FEA236CE4D15FEA5C
:10104000412CE1D05DF8040B704700BF8446084690
:101050006146FFE70FB5FFF7C9FF002848BF10F151
:10106000000F0FBD4DF808EDFFF7F4FF0CBF012096
:1010700000205DF808FB00BF4DF808EDFFF7EAFF20
:1010800034BF012000205DF808FB00BF4DF808EDDB
:10109000FFF7E0FF94BF012000205DF808FB00BFD0
:1010A0004DF808EDFFF7D2FF94BF012000205DF856
:1010B00008FB00BF4DF808EDFFF7C8FF34BF012063
:1010C00000205DF808FB00BF42000ED2B2F1FE4FD7
:1010D0000BD34FF09E03B3EB126209D44FEA002307
:1010E00043F0004323FA02F070474FF000007047CE
:1010F00012F1610F01D1420202D14FF0FF3070476F
:101100004FF00000704700BF53B94AB9002908BF2B
:1011100000281CBF4FF0FF314FF0FF3000F07AB9CC
:10112000ADF1080C6DE904CE00F006F8DDF804E03E
:10113000DDE9022304B070472DE9F0478C460E46E6
:101140000446089D002B50D18A4217466CD9B2FA4A
:1011500082FEBEF1000F0BD0CEF1200C01FA0EF68C
:1011600020FA0CFC02FA0EF74CEA060C00FA0EF418
:101170003A0CBCFBF2F9BBB202FB19CC09FB03FA37
:101180004FEA144848EA0C46B2450AD9F61909F163
:10119000FF3180F02581B24540F22281A9F1020998
:1011A0003E44A6EB0A06B6FBF2F002FB106600FB1B
:1011B00003F3A4B244EA0644A34209D9E41900F1B6
:1011C000FF3280F00B81A34240F2088102383C4498
:1011D0000021E41A40EA0940002D62D0002324FADD
:1011E0000EF42C606B60BDE8F0878B4207D9002DB0
:1011F00055D0002185E841000846BDE8F087B3FAE4
:1012000083F1002940F08F80B34202D3824200F282
:10121000FC80841A66EB03060120B446002D40D002
:1012200085E81010BDE8F08712B90127B7FBF2F787
:10123000B7FA87FEBEF1000F35D10121F61B4FEA48
:10124000174C1FFA87F8B6FBFCF20CFB126608FB82
:1012500002F0230C43EA0646B04207D9F61902F120
:10126000FF3302D2B04200F2D2801A46361AB6FBE1
:10127000FCF00CFB106608FB00F8A3B243EA06443E
:10128000A04507D9E41900F1FF3302D2A04500F2CE
:10129000B9801846A4EB080440EA02409CE72946BE
:1012A0002846BDE8F08707FA0EF7CEF1200326FAAC
:1012B00003F24FEA174CB2FBFCF11FFA87F80CFB64
:1012C000112206FA0EF620FA03F301FB08F9334364
:1012D0001E0C46EA0246B14500FA0EF409D9F61989
:1012E00001F1FF3280F08C80B14540F289800239F3
:1012F0003E44A6EB0906B6FBFCF00CFB106200FBBB
:1013000008F99EB246EA0246B14507D9F61900F13E
:10131000FF3371D2B1456FD902383E44A6EB0906BE
:1013200040EA01418FE7C1F1200722FA07F88B401C
:1013300048EA030326FA07F44FEA134EB4FBFEF91A
:101340001FFA83FC0EFB19448E4020FA07F809FBB4
:101350000CFA48EA06084FEA184646EA0444A24551
:1013600002FA01F200FA01F608D9E41809F1FF3097
:1013700044D2A24542D9A9F102091C44A4EB0A04B3
:10138000B4FBFEF00EFB104400FB0CFC1FFA88F8C7
:1013900048EA0444A44507D9E41800F1FF3E29D2E5
:1013A000A44527D902381C4440EA0940A0FB028921
:1013B000A4EB0C0CCC45C246CE4615D312D055B189
:1013C000B6EB0A036CEB0E0606FA07F7CB401F4399
:1013D000CE402F606E600021BDE8F0871046F7E632
:1013E0008946DEE64645EAD2B8EB020A69EB030E0F
:1013F0000138E4E77046D7E718468FE78146BDE736
:10140000114676E702383C4444E7084606E7023ACC
:101410003E442BE7704700BF38B50E4B05461878A1
:101420004FF47A73B3FBF0F30B4A1068B0FBF3F0A0
:1014300000F092F8044658B90F2D09D80246294603
:101440004FF0FF3000F054F8044B20461D6038BDCB
:10145000012038BD000000201400002004000020FE
:10146000074A08B51368032043F01003136000F027
:101470002DF80020FFF7D0FF01F042FA002008BD50
:1014800000200240034A044B11681B780B44136090
:10149000704700BFE40A002000000020014B1868DC
:1014A000704700BFE40A002038B50446FFF7F6FF96
:1014B0000546631C1EBF044B1B78E418FFF7EEFFC4
:1014C000401B8442FAD838BD00000020074A0002C1
:1014D000D36800F4E06023F4E0631B041B0C43F0CA
:1014E000BF6343F400330343D360704700ED00E073
:1014F000174B30B5DC68C4F30224C4F10703251D83
:10150000042B28BF0423062D4FF0010598BF0024AB
:1015100005FA03F303F1FF3388BF033C1940A140F0
:1015200005FA04F4013C2240002842EA01024FEA95
:101530000212AFBF00F16040064B00F00F00D2B2C4
:10154000A5BFD2B200F561401A5480F8002330BD27
:1015500000ED00E014ED00E00138B0F1807F0AD228
:10156000F021064B064A586082F82310002007221B
:1015700098601A6070470120704700BF10E000E0DB
:1015800000ED00E02DE9F74F00221646654BDFF82D
:10159000A4E1DFF8A4C14FF001080C6808FA06F8CE
:1015A00008EA0404A0457FD14D68122D00F0AF80F9
:1015B00000F28880022D00F0A7807CD8002D00F07A
:1015C0008E80012D00F09E804FF00F09FF2C93BFFD
:1015D000824606F18045083DD0F800B092BFB500C4
:1015E000D0F804B0AD0009FA05F82BEA080802FAB1
:1015F00005F588BF00F1040A48EA0505CAF800505D
:10160000D1F804A01AF0805F4ED0474D464FAD6927
:1016100026F0030845F00105BD61BD6908F1804869
:1016200005F00105019508F5803806F0030B019DD2
:101630004FEA8B0BD8F8085009FA0BF925EA09098B
:101640003A4DA84268D005F58065A84266D005F5F8
:101650008065A84264D005F58065A8420CBF0325CB
:10166000042505FA0BF545EA0905C8F808501D6878
:101670001AF4803F14BF2543A5431D605D681AF42A
:10168000003F14BF2543A5435D609D681AF4801F89
:1016900014BF2543A5439D60DD681AF4001F14BFE5
:1016A0002C4325EA0404DC600136102E7FF473AF6E
:1016B00003B0BDE8F08F032D22D0112D84D1CA686C
:1016C000043281E71A4FBD4209D012D8DFF86C907E
:1016D0004D4504D009F580394D457FF475AF8A68D2
:1016E000C2B1012A0CBFC0F81080C0F814800822D3
:1016F0006AE77545F3D06545F1D0DFF84490EBE734
:10170000002261E7CA685FE7CA6808325CE7CA6816
:101710000C3259E7042257E70025A2E70125A0E78C
:1017200002259EE70004014000100240000801402D
:1017300000002110000031100000321000001110D4
:10174000000022108368194214BF01200020704756
:101750000AB1016170470904FBE70268536913F499
:1017600080630DD06FF480635361042320220364EF
:101770000023036380F83C3080F83D20012070474F
:10178000184670472DE9F843044617469946C1F3B9
:1017900007488EB22568B8F1010F0CBF6B69AB69C1
:1017A00036EA030314BF0120002008B9BDE8F8831E
:1017B0006B695A0512D52B68202243F400732B6005
:1017C0006FF480636B61042323640023012023638F
:1017D00084F83C3084F83D20BDE8F8837B1CD9D0E8
:1017E0004FB900232022236384F83C3084F83D2045
:1017F0000320BDE8F883FFF751FEA0EB0900874204
:10180000C8D2EEE72DE9F843044690461F46089EED
:10181000C1F307498DB22368B9F1010F0CBF5B69B1
:101820009B6935EA03030CBF01230023434502D023
:101830000020BDE8F8837B1CEDD05FB90023202297
:10184000236384F83C3084F83D20032084F83E3044
:10185000BDE8F883FFF722FE801B8742DBD2EDE76D
:1018600070B504460D46164623685B691B0601D514
:10187000002070BD2046FFF770FFA8B96A1CF3D0A6
:1018800065B9236C202243F0200323640023032046
:10189000236384F83C3084F83D2070BDFFF7FEFDE3
:1018A000801B8542E0D2ECE7012070BD2DE9FF41AD
:1018B00015460268984613680B9E43F480731360C4
:1018C0000F4600960A9B00224FF001110446FFF7D5
:1018D00099FF68B9236807F0FE071F610A9A33462B
:1018E0001A492046FFF74EFF30B1236C042B18D065
:1018F000032004B0BDE8F081236803905A690A9977
:1019000003929B69324603932046039BFFF7A8FF8F
:1019100048B1236C042BEBD12268136843F40073A5
:1019200013600120E5E7B8F1010F236802D1EDB2A1
:101930001D61DEE72A0A1A610A9932462046FFF73E
:101940008FFF0028E5D12368F1E700BF0200010006
:1019500070B504460D46164623685B695B0701D5E2
:10196000002070BD2046FFF7F8FEA8B96A1CF3D02E
:1019700065B9236C202243F0200323640023032055
:10198000236384F83C3084F83D2070BDFFF786FD6A
:10199000801B8542E0D2ECE7012070BD38B50446DB
:1019A00008B9012038BD90F83D3003F0FF021BB9A3
:1019B00080F83C2000F00EFD2423226884F83D309E
:1019C000136823F00103136000F04EFC63682F4A94
:1019D000934230D82E4A9042E3D92E4A2168B0FB78
:1019E000F2F24A6001320A62284A0138934232D840
:1019F0005B00B0FBF3F0431CC3F30B03042B38BFB5
:101A00000423CB61226AE369002013430B60E26880
:101A1000236913438B60A26963691343CB600B682E
:101A200043F001030B602023206484F83D302063E1
:101A300084F83E0038BD184A9042B2D9154D4FF493
:101A40009672B0FBF5F521686A434D604FF47A75E4
:101A5000B2FBF5F2C6E7A26852B903EB4303B0FB51
:101A6000F3F0431CC3F30B036BB143F40043C8E72B
:101A700019225343B0FBF3F0431CC3F30B0313B120
:101A800043F44043BDE70123BBE700BFA08601004C
:101A90007F841E0040420F00FF083D002DE9FF41FA
:101AA00004461F460D469046FFF7F8FC94F83D307B
:101AB0000646202B04D00225284604B0BDE8F0815C
:101AC0000090192301225D492046FFF79BFE002864
:101AD000F1D194F83C30012BEDD0012384F83C3057
:101AE00023681A68D2075EBF1A6842F001021A60C2
:101AF0001A6822F400621A60212284F83D20102224
:101B000084F83E2000222264A2F580326785E262DA
:101B1000628DC4F824802285E26A042A04D0012A56
:101B200002D012F5803F04D11A6842F480721A6024
:101B300002E0226B122AF7D000960A9B00224FF097
:101B400001112046FFF75EFE28BB23692268B3F52A
:101B5000804F12D105F0FE05156133460A9A3849C7
:101B60002046FFF70FFE0546A0B9236803905A6987
:101B700003929B690393039B50E0EB1103F0060370
:101B800043F0F00313612F4933460A9A2046FFF7CA
:101B9000F9FD48B1236C236C042B4FF0000307D1EF
:101BA00084F83C30012587E72368EDB21D61D4E756
:101BB00084F83C3003257FE732460A992046FFF738
:101BC0004FFE40B1236C042BF4D12268136843F418
:101BD00000731360E6E7616A20684B1C63620B7850
:101BE000228D0361638D013B9BB263854769531E60
:101BF0009BB27F0723850AD54BB18B1C63624B7860
:101C0000023A0361638D2285013B9BB263853246B4
:101C10000A992046FFF79CFE0028D3D1238D002B84
:101C2000CAD121680A6842F400720A60202284F84E
:101C30003C3084F83D2084F83E303DE7020010003F
:101C400002000100080001002DE9F34704469A460E
:101C5000884691460C9EFFF721FC94F83D300546DE
:101C6000202B03D0022002B0BDE8F087009019239A
:101C700001223E492046FFF7C5FD0028F2D194F825
:101C80003C30012BEED0012384F83C302368002740
:101C90001A684146D20758BF1A6820465CBF42F016
:101CA00001021A601A6822F400621A60212384F883
:101CB0003D30402384F83E300A9B27646362BDF8C0
:101CC0002C30019563852A4B0096E362638D4A466A
:101CD00023855346FFF7EAFD00282AD0236C84F8B9
:101CE0003C70042B07D10120BDE7FFF7B9FD20B1FF
:101CF000236C042B34D00320B5E7616A27684B1CA2
:101D000063620B78228D3B61638D501E013B9BB259
:101D100063857B6980B25B0720850AD548B18B1C3F
:101D200063624B78023A3B61638D2285013B9BB233
:101D30006385238D2A4631462046002BD5D1FFF7F7
:101D400007FE0028D4D12268136843F4007313609F
:101D5000202384F83C0084F83D3084F83E0082E77C
:101D60002268136843F400731360BCE7020010009C
:101D70000000FFFF03682DE9F341DB07054610D49F
:101D80002B689F075ED42B68190700F195802B689C
:101D90005A0700F1BF80EA69002A40F02D81002037
:101DA00014E0904C636803F00C03042B07D06368C5
:101DB00003F00C03082B0CD16368DE0309D52368FC
:101DC0009C03DDD56B68002BDAD1012002B0BDE8A1
:101DD000F0816B68B3F5803F10D1236843F4803302
:101DE0002360FFF75BFB064623689803C8D4FFF720
:101DF00055FB801B6428F7D90320E7E79BB92368CC
:101E000023F480332360236823F480232360FFF7C7
:101E100045FB064623689903B2D5FFF73FFB801BBD
:101E20006428F7D9E8E7B3F5A02F236803D143F47A
:101E300080232360D1E723F480332360236823F4D5
:101E40008023CDE7674C636813F00C0F07D06368FD
:101E500003F00C03082B10D16368DA030DD4236858
:101E60009B0702D52B69012BAFD123686A6923F048
:101E7000F80343EAC203236085E72A695A4B6AB133
:101E800001221A60FFF70AFB064623689F07ECD47D
:101E9000FFF704FB801B0228F7D9ADE71A60FFF7B4
:101EA000FDFA0646236898077FF56DAFFFF7F6FA4F
:101EB000801B0228F6D99FE7AA694A4C4B4BDAB13E
:101EC00001221A60FFF7EAFA0646636A9B070DD5FE
:101ED0004FF4FA52464B1B68B3FBF2F3019300BF79
:101EE000019B5A1E0192002BF9D150E7FFF7D6FA59
:101EF000801B0228E9D97FE71A60FFF7CFFA064670
:101F0000636A9F077FF543AFFFF7C8FA801B02287B
:101F1000F6D971E7334CE369D80024D40127E3698B
:101F200043F08053E361E36903F080530093009B27
:101F3000304E3368D90518D5EB68012B26D1236ABA
:101F400043F001032362FFF7A9FA41F28836804685
:101F5000236A9B073FD5002F3FF41DAFE36923F0B1
:101F60008053E36117E70027E2E7336843F48073A7
:101F70003360FFF793FA80463368DA05DCD4FFF765
:101F80008DFAA0EB08006428F6D935E7ABB9236ACF
:101F900041F2883823F001032362236A23F004030B
:101FA0002362FFF77BFA0646236A9807D3D5FFF72B
:101FB00075FA801B4045F7D91EE7052B236A03D12C
:101FC00043F004032362BAE723F001032362236A88
:101FD00023F00403B6E7FFF761FAA0EB0800B04274
:101FE000B6D909E700100240000042428004424294
:101FF0001400002000700040224C636803F00C03C2
:10200000082B3FF4E2AE00231F4E022A33602BD18F
:10201000FFF744FA0746236899011FD42B6AB3F5EA
:10202000803F05D16268A96822F400320A436260E9
:10203000696A62680B4322F47412134363600123DC
:102040003360FFF72BFA054623689A013FF5A7AEE8
:10205000FFF724FA401B0228F6D9CDE6FFF71EFA57
:10206000C01B0228D7D9C7E6FFF718FA0546236830
:102070009B017FF594AEFFF711FA401B0228F6D9B9
:10208000BAE600BF001002406000424230B5194B72
:1020900087B002AC03F1100522461868596808336E
:1020A00003C2AB421446F7D101238DF8043002235A
:1020B00011498DF805304B6803F00C02082A17D13E
:1020C000C3F3834206A80244DB0312F8102C0CD59C
:1020D0004B680A48C3F34043504306AA134413F81D
:1020E000143CB0FBF3F007B030BD05485043FAE7AD
:1020F0000248F8E7685800080010024000127A0011
:1021000000093D00544A2DE9F0411368054603F0EB
:1021100007038B420E462AD329688C0734D4CA079A
:1021200047D44D4A136803F007039E42C0F08280F3
:102130002A684A4C12F0040F40F08780130706D536
:1021400063682A6923F4605343EAC2036360FFF7BC
:102150009DFF6368424AC3F30313D35CD840414BED
:1021600018600020FFF758F90020BDE8F0811368DF
:1021700023F007030B431360136803F0070399422E
:10218000CAD00120BDE8F081344B11F0040F1EBF0E
:102190005A6842F4E0625A60080742BF5A6842F443
:1021A00060525A605A68A86822F0F00202435A60EE
:1021B000B5E76A68294C012A23681CD113F4003F53
:1021C000DFD0636841F2883823F003031343636070
:1021D000FFF764F96B680746012B14D1636803F0BD
:1021E0000C03042B9DD0FFF759F9C01B4045F5D9CE
:1021F0000320BDE8F081022A02D113F0007FDFE75F
:1022000013F0020FDCE7022B0FD1636803F00C031D
:10221000082B86D0FFF742F9C01B4045F5D9E7E708
:10222000FFF73CF9C01B4045E2D8636813F00C0F80
:10223000F6D176E7136823F007033343136013687E
:1022400003F007039E429CD172E76368E96823F4B8
:10225000E0630B43636071E700200240001002401E
:10226000F365000814000020044B054A5B68C3F3C3
:102270000223D35C034A1068D84070470010024024
:1022800003660008140000201FB51649FEF756FD2E
:102290001549FEF74BFC4FF08141FEF74FFD4FF023
:1022A0006051FEF74BFDFEF70FFF030A8DF8083073
:1022B000B0238DF80A3010238DF80B3000238DF8F1
:1022C0000C304FF0FF338DF80900009302AA05236C
:1022D000C0210648FFF7E2FB6420FFF7E5F805B0F0
:1022E0005DF804FB0024744900BA5B48E80A00204A
:1022F000102270B588B00DEB0200002100F09CFBAD
:10230000214B224E9A69304642F010029A619A6936
:102310004FF4005102F010020092009A9A690124D1
:1023200042F020029A619A69002502F0200201928F
:10233000019A9A6942F008029A619A6902F00802C9
:102340000292029A9A6942F004029A619B69002201
:1023500003F004030393039BFFF7FAF94FF40053D0
:102360000493022304A93046079305940695FFF7CA
:1023700009F94FF4405304A90548049305950694C0
:10238000FFF700F908B070BD0010024000100140D6
:10239000000C014008B50C480C4BDFF834E04FF45A
:1023A000804280E80840002302618360C36043618B
:1023B0008361C3610362FFF7F1FA18B1BDE8084019
:1023C00000F062B908BD00BFE80A002000540040D8
:1023D000A086010010B5044686B01022002102A894
:1023E00000F02AFB2268114B9A421CD1104C02A922
:1023F000A369104843F00803A361A36903F008032D
:102400000093009BC023029312230393032305939D
:10241000FFF7B8F8E36943F40013E361E36903F4F9
:1024200000130193019B06B010BD00BF0054004093
:1024300000100240000C014038B5294C2421232013
:1024400000F058FA94E806000123264800F03CFA10
:102450000021142000F04EFA94E8060001232248DF
:1024600000F032FA214D1021282000F043FA94E8C0
:10247000060001231E4800F027FA1E492868FEF7CF
:102480000FFE242148B3232000F034FA2868FDF71A
:10249000CBFF02460B461848184900F0D5FA94E8DD
:1024A00006000123144800F00FFA2421002000F058
:1024B00021FA94E806000123114800F005FA2421CE
:1024C000742000F017FA94E8060001230D4800F08C
:1024D000FBF9BDE8384000F0FBB82820D4E700BF86
:1024E00008000020D4650008DA650008100000200C
:1024F000E36500080000C8423C0B0020E9650008C5
:10250000EF650008F165000808B52421002000F0FF
:10251000F1F9074A002306CA064800F0D5F900F091
:10252000D7F81420FEF7C0FFBDE80840FFF784BFCE
:1025300008000020EF65000808B52421742000F091
:10254000D9F9074A002306CA064800F0BDF900F091
:10255000BFF83220FEF7A8FFBDE80840FFF76CBFC8
:1025600008000020F165000810B50A4C0A492068EF
:10257000FEF7A0FD08B1094B236008492068FEF76B
:102580007BFD08B1044B23602068BDE81040FFF7D5
:102590007BBE00BF100000200000D4420000BE42FD
:1025A00010B590B02822002106A800F045FA0021BD
:1025B000142201A800F040FA4FF4803301220224D3
:1025C00007930E934FF4E01306A806920A920F9316
:1025D0000D94FFF7CFFB0F234FF48062019300238C
:1025E000214601A80294039304920593FFF78AFD04
:1025F00010B010BD0000000080B51FA7D7E900672C
:10260000FEF72EFFFFF7CCFFFFF772FEFFF7C2FECB
:1026100000F084F8FFF7A8FFFFF70EFF184C194DE4
:102620004FF480512846FFF78DF868B92068FDF710
:10263000FBFE32463B46FDF797FDFEF721FA206090
:10264000FFF792FFFFF760FF4FF400512846FFF7B6
:1026500079F80028E4D12068FDF7E6FE32463B46D3
:10266000FDF784FDFEF70CFA2060FFF77DFFFFF712
:1026700063FFD4E7AFF300809A9999999999B93F8C
:1026800010000020000C0140704700007FB50A23B5
:1026900006AA02F8010D0293012378218DE80C00AF
:1026A00003480022FFF7D0FA07B05DF804FB00BF33
:1026B000E80A002000230549021C18BF01225242EB
:1026C0005A540133B3F5806FF6D17047AA06002043
:1026D0007FB500240F4E104DA4F15000C0B2FFF79B
:1026E000D5FF0020FFF7D2FF1020FFF7CFFF6423B4
:1026F00002938023019306EBC4130093402201232D
:10270000782128460134FFF79FFA082CE4D104B061
:1027100070BD00BFAA060020E80A002008B56420AA
:10272000FEF7C2FEAE20FFF7B1FF2020FFF7AEFF9D
:102730001020FFF7ABFFB020FFF7A8FFC820FFF77E
:10274000A5FF0020FFF7A2FF1020FFF79FFF40200A
:10275000FFF79CFF8120FFF799FFFF20FFF796FF0F
:10276000A120FFF793FFA620FFF790FFA820FFF717
:102770008DFF3F20FFF78AFFA420FFF787FFD320BC
:10278000FFF784FF0020FFF781FFD520FFF77EFFD2
:10279000F020FFF77BFFD920FFF778FF2220FFF71B
:1027A00075FFDA20FFF772FF1220FFF76FFFDB20C3
:1027B000FFF76CFF2020FFF769FF8D20FFF766FF12
:1027C0001420FFF763FFAF20FFF760FF0020FFF743
:1027D00071FFFFF77DFF01200022024B58711A8024
:1027E0005A8008BDA4060020030610B51AD43F295C
:1027F00018D80D4B1B7913B1B2FA82F25209CC08EA
:10280000012A0A4B01F0070100EBC41004D18A40F1
:10281000195C0A431A5410BD01228A40195C21EA4E
:102820000201195410BD00BFA4060020AA06002012
:102830002DE9F04F87B0074606A800E906009B4641
:10284000204B9DF810901C88019304EB09027F2A0D
:1028500036DC5B889DF811A0009303EB0A023F2A47
:102860002EDC0026A7F120020AFB02F30393564553
:1028700006D3019B4C441C80384607B0BDE8F08F5E
:102880000025039B0599F21831F812300293009B42
:1028900003EB06085FFA88F84D4501D30136E6E7F9
:1028A000029B281903FA05F2130456BFBBFA8BF2F8
:1028B0005A4652094146C0B2FFF796FF0135EBE791
:1028C0000027D9E7A4060020F7B51F466D468DE81E
:1028D0000600461E74784CB195E8060020463B463B
:1028E000FFF7A6FF16F8014FA042F3D0204603B031
:1028F000F0BD0000014B188059807047A4060020ED
:102900000E4B82B09A6942F001029A619A6902F014
:1029100001020092009ADA6942F08052DA61DB69C2
:10292000074A03F080530193019B536823F0E0634F
:1029300043F00073536002B0704700BF00100240C4
:10294000000001407047FEE7FEE7FEE7FEE7704744
:1029500070477047FEF796BD0F4B1A6842F00102B0
:102960001A6059680D4A0A405A601A6822F0847247
:1029700022F480321A601A6822F480221A605A689F
:1029800022F4FE025A604FF41F029A604FF0006278
:10299000034B9A60704700BF001002400000FFF830
:1029A00000ED00E0002103E00B4B5B584350043185
:1029B0000A480B4B42189A42F6D30A4A02E0002317
:1029C00042F8043B084B9A42F9D3FFF7C5FF00F0E9
:1029D0000FF8FFF711FE704788680008000000201C
:1029E00088060020880600207C0B0020FEE70000FF
:1029F00070B500250C4E0D4CA41BA410A54209D1A6
:102A000002F026FF00250A4E0A4CA41BA410A54282
:102A100005D170BD56F8253098470135EEE756F8D8
:102A2000253098470135F2E7806800088068000883
:102A3000806800088468000803460244934200D17D
:102A4000704703F8011BF9E70EB44FF4027100B5AB
:102A50009CB0ADF814106FF00041049107914FF64F
:102A6000FF711DAB02900690084853F8042BADF897
:102A70001610006802A9019300F00AF80022029BD8
:102A80001A701CB05DF804EB03B07047180000200A
:102A90002DE9F04FBFB0894615461F46824601F02A
:102AA00027FE036818461193FDF752FBB9F80C3066
:102AB0000A901B0618D5D9F81030ABB94021504602
:102AC00001F02CFEC9F80000C9F8100048B90C2329
:102AD000CAF800304FF0FF330B930B983FB0BDE8BE
:102AE000F08F4023C9F8143000232EAC2194239397
:102AF0002293099507930D930E93159314930B93BB
:102B000012931393099D2B4613F8012B12B1252A1A
:102B100040F08380099BEE1A0DD084E84800239B87
:102B200033442393229B0133072B229377DC083411
:102B30000B9B33440B932B78002B00F0258700234D
:102B4000691C1A464FF0FF3B1D460A208DF867307E
:102B50000C934E1C0978099606910699203958293C
:102B600000F21484DFE811F0A50012041204AA0098
:102B7000120412041204120412041204AD006500BF
:102B80001204B500B8001204D500D800D800D8004F
:102B9000D800D800D800D800D800D80012041204F9
:102BA0001204120412041204120412041204120475
:102BB0000C01220112042201120412041204120454
:102BC000EB00120412043C03120412041204120457
:102BD0001204A40312041204850012041204120445
:102BE0001204120412041204120412041204FE004D
:102BF0006B00220122012201EE006B00120412047C
:102C0000F10012041E033E037203F8001204830352
:102C10001204A60312041204BE031D4673E721AA80
:102C20004946504602F08EFA002840F08E862EACBF
:102C30007EE701232B2209998BE70F46FBE70BB1B7
:102C40008DF86720AE0640F1A180073727F007070F
:102C500007F108030893D7E90067002E77F1000316
:102C600005DA2D23764267EB47078DF8673001239D
:102C7000C7E20BB18DF86720A04B1593AB0640F16E
:102C80003683073727F0070707F108030893D7E9CA
:102C90000067E8070BD556EA070308D030238DF804
:102CA00068309DF8183045F002058DF86930022330
:102CB000A4E2002ABFD101232022BCE745F0010590
:102CC000B9E73E68391D002E0C96B6DA0F467642FB
:102CD0000C9645F00405AEE709994E1C09782A299F
:102CE000069110D04FF0000B09960699303909294A
:102CF0003FF633AF00FB0B1B09990E4616F8011B7C
:102D000006910996F1E73968099641EAE17B0437B3
:102D100091E745F080058EE700210C9106990C9E05
:102D2000303900FB06110C9109990E4616F8011B6B
:102D300006910699099630390929EFD90DE745F032
:102D4000080578E745F0400575E7099909786C2989
:102D500005D109990131099145F020056BE745F04E
:102D6000100568E700263B1D08933B688DF86760F7
:102D70008DF890304FF0010B37460DF190081CE1B3
:102D80000BB18DF8672045F010055BE715F0100FCB
:102D900007F1040303D03E680893F7175DE73E6828
:102DA00015F0400F089318BF36B2F6E70BB18DF857
:102DB0006720073727F0070707F1080308933B68E8
:102DC0004FF0FF320D937B680D9F0E930E9B38469C
:102DD00023F0004631464A4BFDF714FE002840F030
:102DE000DC854FF0FF32464B38463146FDF7ECFDAF
:102DF000002840F0D285129A139B0D980E99FDF78A
:102E0000D9FD10B12D238DF867303E4B3E4A06990F
:102E10004FF0030B4729CCBF90469846002625F07B
:102E200080053746C9E0BBF1FF3F26D0069B23F063
:102E30002003472B04D1BBF1000F08BF4FF0010B5B
:102E400045F4807317930E9B1F1E0D9BA8BF109710
:102E50000F93BDBF3B4603F1004310930023B8BF5F
:102E60002D231693069B23F02007462F08D0452FCD
:102E700042D10BF10106022304E04FF0060BDFE71D
:102E80005E4603231FAA04921CAA03921BAA029265
:102E90008DE848000F9A109B504600F055FE472FD2
:102EA000804602D1E80740F1858508EB0603462FEE
:102EB000079311D198F80030302B09D1129A139B47
:102EC0000F981099FDF76CFD10B9C6F101061B961D
:102ED000079A1B9B1A440792129A139B0F981099FA
:102EE000FDF75EFD90B930221F9B079999420FD9DB
:102EF000591C1F911A70F7E75E46BCE71B66000875
:102F0000FFFFEF7F0B6600080F660008079B1F930B
:102F10001F9B472FA3EB0803079340F000811B9BE7
:102F2000D91C02DB9B4580F22681069B023B06935F
:102F30001B9A9DF81810531E002BA8BF2B221B9321
:102F4000BCBFC2F101032D22092B8DF874108DF83E
:102F5000752040F300810A260DF1830293FBF6F001
:102F600006FB1033092803F1300302F8013C02F19B
:102F7000FF31034600F3E880303301F8013C023AA8
:102F80000DF176030DF1830082421946C0F0DE8018
:102F9000079A1DABCB1A012A149303EB020B02DC38
:102FA00015F0010702D000270A9B9B44169B13B122
:102FB0002D238DF867300026179D5E453346B8BF38
:102FC0005B460F939DF8673013B10F9B01330F934E
:102FD00015F0020316931EBF0F9B02330F9315F0DB
:102FE0008403179318D10C9B0F9A9B1A002B1093F4
:102FF00012DD109B102BAB4B236000F3D981109B8B
:10300000109A6360239B13442393229B0133072B65
:10301000229300F3E68108349DF8673073B10DF117
:103020006703236001236360239B01332393229B67
:103030000133072B229300F3DE810834169B6BB11A
:103040001AAB236002236360239B02332393229BEA
:103050000133072B229300F3D8810834179B802B70
:1030600018D10C9B0F9A9B1A002B109312DD109B0A
:10307000102B8D4B236000F3D281109B109A63605C
:10308000239B13442393229B0133072B229300F3AA
:10309000DF810834A6EB0B06002E0FDD824B102ECD
:1030A000236000F3DF81229B239801336660072BA6
:1030B00006442396229300F3EC810834EB0500F1DB
:1030C000F281239B84E800095B442393229B013314
:1030D000072B229340F3198421AA4946504602F057
:1030E00031F8002840F031842EAC6B0700F11084D9
:1030F0000B9B0C9A0F998A42ACBF9B185B180B93E1
:10310000239B3BB121AA4946504602F01BF80028F8
:1031100040F01B840023089F22932EACF2E4069B10
:10312000652B7FF705AF069B662B24D11B9B002BDD
:1031300019DDBBF1000F01D1EA0702D50A9A134449
:103140005B441B9F9B4631E70A4607E712F8011BC9
:1031500003F8011B18E7302213448DF876208DF810
:1031600077301EA914E7BBF1000F01D1EB0715D58D
:103170000A9B0133E4E71B9A079B9A4206DBEF07A1
:103180000ED50A9B134467220692DAE7079B0A9939
:10319000002A0B44F7DCC2F10102F3E70123D0E778
:1031A0001346F0E70BB18DF8672015F0200F07F1FB
:1031B000040308D00B993A68CE1708463146C2E995
:1031C00000011F469EE4EE0603D53A680B99116094
:1031D000F7E76806F9D53A68BDF82C101180F0E7DA
:1031E00045F0100515F0200322D0073727F0070718
:1031F00007F108030893D7E90067002300228DF840
:103200006720BBF1FF3F00F0DB8325F080020F92C7
:1032100056EA070240F0D983BBF1000F00F0AA8004
:10322000012B76D0022B00F0918000260027D2E3FC
:103230003A1D15F01001089202D03E680027DDE724
:1032400015F04003F9D03E880027D6E73B1D0893D0
:10325000302378228DF86830144B3E681593002790
:1032600045F002058DF8692002230692C6E7002684
:103270003B1DBBF1FF3F0893D7F800808DF86760D6
:103280000AD05A463146404601F054FC002800F06E
:103290008D80A0EB080BC4E54046FCF759FF834640
:1032A000BFE500BF3F6600084F6600082C660008B7
:1032B00045F01005A90609D5073727F0070707F1DC
:1032C00008030893D7E90067012397E73B1D15F032
:1032D000100F089301D03E6802E06A06FBD53E88D5
:1032E0000027F1E70BB18DF86720A34BC5E43B1D28
:1032F00015F0100F089301D03E6802E06E06FBD572
:103300003E880027C5E4434666E3002F08BF0A2E27
:1033100005D230360DF1F80808F8416D77E30DF16C
:10332000B808304639460A220023FDF7EDFE303258
:1033300008F8012D0023304639460A22FDF7E4FE45
:1033400006460F4656EA0703EBD160E30026002746
:103350000DF1B808159A06F00F03D35C3A0908F886
:10336000013D330943EA07731E46174656EA070331
:10337000F0D14CE33BB9EA0705D530230DF1F8084D
:1033800008F8413D43E30DF1B80840E30BB18DF877
:103390006720069B002B00F0F78200269DF818306E
:1033A0008DF867608DF890300897E3E4064638E5BD
:1033B00010236360239B10332393229B0133072B3D
:1033C000229304DC0834109B103B109311E621AAD1
:1033D0004946504601F0B6FE002840F0B6822EACB9
:1033E000F1E721AA4946504601F0ACFE002840F022
:1033F000AC822EAC10E621AA4946504601F0A2FE4E
:10340000002840F0A2822EAC18E621AA4946504678
:1034100001F098FE002840F098822EAC1EE61023A2
:103420006360239B10332393229B0133072B22934A
:1034300004DC0834109B103B109318E621AA49467F
:10344000504601F07FFE002840F07F822EACF1E76D
:1034500021AA4946504601F075FE002840F07582C9
:103460002EAC17E610236360239B10332393229B1B
:103470000133072B229302DC0834103E0EE621AA0A
:103480004946504601F05EFE002840F05E822EACB8
:10349000F3E721AA4946504601F054FE002840F0C7
:1034A00054822EAC0AE6069B652B40F3A981129A42
:1034B000139B0D980E99FDF773FA002862D02F4BDD
:1034C000236001236360239B01332393229B0133F9
:1034D000072B229325DC08341B9B079A934202DBBF
:1034E000EE077FF502AE119B0A9A23600A9B636088
:1034F000239B13442393229B0133072B22931ADC33
:103500000834079B5E1E002E7FF7EFAD4FF01008CA
:103510001B4F102E276018DC6660239B1E442396E9
:10352000D4E521AA4946504601F00CFE002840F09F
:103530000C822EACD0E721AA4946504601F002FE8B
:10354000002840F002822EACDBE7239BC4F8048005
:1035500010332393229B0133072B229302DC083480
:10356000103ED6E721AA4946504601F0EBFD00285F
:1035700040F0EB812EACF3E72C6600083D660008B6
:103580004F6600081B9B002B7ADC9B4B23600123BA
:103590006360239B01332393229B0133072B2293E8
:1035A00044DC08341B9B23B9079B13B9E8077FF55C
:1035B0009CAD119B0A9A23600A9B6360239B134472
:1035C0002393229B0133072B229339DC04F1080358
:1035D0001B9E002E19DA1024884F7642102E1F6091
:1035E00038DC239A5E601644229A23960132072A19
:1035F00003F10803229208DD21AA4946504601F052
:10360000A1FD002840F0A1812EAB079A07995A60CE
:10361000239AC3F800800A442392229A0132072A8F
:1036200022923FF759AD03F108045EE521AA49460D
:10363000504601F087FD002840F087812EACB1E7AD
:1036400021AA4946504601F07DFD002840F07D81C9
:103650002EABBDE7239A5C6010322392229A01328E
:10366000072A229202DC0833103EB7E721AA494616
:10367000504601F067FD002840F067812EABF3E76C
:10368000079BBB42A8BF3B46002B1E460BDD636079
:10369000239BC4F8008033442393229B0133072BE0
:1036A00022935FDC0834002EB4BF3E46BE1B002EC2
:1036B0000FDDDFF848B1102EC4F800B05CDC239BAE
:1036C00066601E44229B23960133072B22936ADCFB
:1036D00008341B9B079A934201DBE9070DD5119B28
:1036E0000A9A23600A9B6360239B13442393229BC3
:1036F0000133072B229360DC0834079B079ADE1BFB
:103700001B9BD31A9E42A8BF1E46002E0BDD239B97
:10371000474433442393229B27600133072B666081
:10372000229354DC08341B9B079A002EA2EB030360
:10373000B4BF1E469E1B002E7FF7D7AC4FF010087B
:103740002E4F102E27607FF7E7AE239BC4F804802E
:1037500010332393229B0133072B229341DC08343F
:10376000103EEEE721AA4946504601F0EBFC002846
:1037700040F0EB802EAC96E710236360239B103360
:103780002393229B0133072B229302DC0834103E43
:1037900091E721AA4946504601F0D4FC002840F0A8
:1037A000D4802EACF3E721AA4946504601F0CAFC6A
:1037B000002840F0CA802EAC8BE721AA494650462B
:1037C00001F0C0FC002840F0C0802EAC95E721AA93
:1037D0004946504601F0B6FC002840F0B6802EACB9
:1037E000A1E721AA4946504601F0ACFC002840F070
:1037F000AC802EACB4E700BF3D6600084F66000801
:10380000079B012B01DCEA0776D501236360239B2C
:10381000C4F8008001332393229B0133072B2293AA
:1038200036DC0834119B0A9A23600A9B6360239B51
:1038300013442393229B0133072B229331DC08345A
:10384000139B129A0D980E99FDF7AAF8079B5E1E1E
:1038500000282FD108F1010384E84800239B079A30
:10386000013B13442393229B0133072B22934ADD10
:1038700021AA4946504601F065FC002865D12EACCE
:103880001DAB2360149B149A6360239B13441CE4B8
:1038900021AA4946504601F055FC002855D12EACCE
:1038A000C0E721AA4946504601F04CFC00284CD103
:1038B0002EACC5E7002EE3DD4FF01008584F102E58
:1038C000276004DC239B66601E442396CBE7239B82
:1038D000C4F8048010332393229B0133072B2293D7
:1038E00002DC0834103EEAE721AA4946504601F0BE
:1038F00029FC50BB2EACF5E701236360239BC4F881
:1039000000800133AEE70834BAE70834FFF7EDBBB7
:103910000C9B0F9A9D1A002D7FF7EAAB1026414BA6
:10392000102D23601BDC239B65601D44229B239587
:103930000133072B22937FF7DBAB21AA4946504680
:1039400001F000FC00283FF4D3ABB9F80C3013F0C1
:10395000400F0B9B18BF4FF0FF33FFF7BDB8239B01
:10396000666010332393229B0133072B229302DCE2
:103970000834103DD3E721AA4946504601F0E2FB46
:103980000028E2D12EACF4E7239B002BDDD021AA46
:103990004946504601F0D6FBD7E70D9A0E9B0D988D
:1039A0000E99FDF72FF800283FF43DAA1E4B1F4A41
:1039B000FFF72DBA1F9BA3EB08030793FFF7AFBADE
:1039C00056EA07020F953FF42BAC012B3FF49DAC58
:1039D000022B3FF4BDAC2EABF10841EA4771F80869
:1039E00006F0070207460E46303256EA070103F199
:1039F000FF3803F8012C7FF486AC0F99C90706D570
:103A0000302A04D0302208F8012CA3F102082EAB92
:103A10005E460F9DA3EB080B0027FFF7CEBA00BF51
:103A20004F6600083F660008136600081766000826
:103A30002DE9F74F03690C6980469C4200F38280B0
:103A4000013C01F1140700F1140657F8245056F810
:103A500024000135B0FBF5F54FEA840E06EB0E03AA
:103A600007EB0E0901938DB34FF0000A3846B446B8
:103A7000D34650F8042B93B205FB03A3120C4FEA74
:103A8000134A05FB02A29BB2ABEB0303BCF800B0E8
:103A90004FEA124A5B441FFA82FBDCF800208145A2
:103AA000CBEB124202EB23429BB243EA02434FEAC2
:103AB000224B4CF8043BDCD256F80E3033B9019B54
:103AC000043B9E421A4631D3C8F81040404601F0EC
:103AD00060FA002826DB30464FF0000E013557F81B
:103AE000041BD0F800C08BB2AEEB03031FFA8CF2BC
:103AF00013440A0CC2EB1C4202EB23429BB243EA82
:103B00000243B9454FEA224E40F8043BE7D256F84B
:103B1000242006EB84032AB9043B9E421A460BD3A9
:103B2000C8F81040284603B0BDE8F08F1268043B87
:103B3000002AC9D1013CC4E71268043B002AEFD136
:103B4000013CEAE70020EEE72DE9F04F466A95B028
:103B50000446219DCDE902233EB9102000F0D6FD98
:103B60006062466086600660C660636A196851B12B
:103B70005A68012393404A608B60204601F034F874
:103B80000022636A1A60039B002BB7BF0123002346
:103B90002B60039BAEBF2B6023F000430393DDF843
:103BA0000C90AB4B33EA09031BD142F20F73209AFE
:103BB0001360029B23B9C9F31300002800F083852A
:103BC000229B53B9A34B21E0A34B06930833229ABF
:103BD0001360069815B0BDE8F08F9E4B0693033333
:103BE000F5E7DDE902670022002330463946FCF79D
:103BF000D7FE804660B10123209A1360229B002BE0
:103C000000F05E85954B229A1360013B0693E0E736
:103C100012AB019313AB009332463B46204601F0B2
:103C200031FAC9F30A558246002D7DD03046C7F3DC
:103C3000130343F07F5141F44011A5F2FF35CDF855
:103C400040800022864BFCF78FFA7BA3D3E9002348
:103C5000FCF73EFC7AA3D3E90023FCF787FA06467B
:103C600028460F46FCF7CEFB77A3D3E90023FCF7E9
:103C70002FFC02460B4630463946FCF777FA0646DB
:103C80000F46FCF7D5FE0022834600233046394616
:103C9000FCF790FE58B15846FCF7B4FB02460B46C1
:103CA00030463946FCF77CFE08B90BF1FF3BBBF10F
:103CB000160F58D8DDE902236A4901EBCB01D1E99F
:103CC0000001FCF795FE00284FD000230BF1FF3BCD
:103CD0000D93129B5D1B6B1E079343BF0023C5F121
:103CE000010807934FF00008BBF1000F3FDB079B73
:103CF000CDF830B05B440793002308931E9B092B3B
:103D000000F2B480052BC4BF043B1E931E9BC8BFAA
:103D10000026A3F10203D8BF0126032B00F2B280D4
:103D2000DFE803F084862D78139B129D1D4405F275
:103D30003243202B11DD029A05F21240C3F14003F9
:103D400022FA00F009FA03F31843FCF74BFB0123B6
:103D5000A1F1F871013D109373E7C3F12000029BBC
:103D600003FA00F0F1E70123B2E70D90B1E7CBF1E0
:103D7000000308930023A8EB0B080C93BEE7012374
:103D800009931F9B002B40F38080994604930022E7
:103D90000421656A6A6001F114029A427AD969685D
:103DA000204600F0EDFE636A28601B68B9F10E0F33
:103DB000069300F2F080002E00F0ED80DDE9022392
:103DC000BBF1000FCDE90E2379DD264A0BF00F037E
:103DD0004FEA2B1602EBC303F006D3E90023CDE92B
:103DE0000A235CD5DDE90E011F4B0325D3E9082327
:103DF000FCF798FCCDE9020106F00F061A4F002EE1
:103E00004FD1DDE90A23DDE90201FCF78BFCCDE9A6
:103E100002016EE0012309931F9B5B4403F101093A
:103E200004934B46012BB8BF0123B0E70023A7E75B
:103E30000023F0E7AFF3008061436F63A787D23FB1
:103E4000B3C8608B288AC63FFB799F501344D33F89
:103E50000000F07F686600085F6600083E660008A4
:103E60000000F83F986600087066000801260023ED
:103E700009961E934FF0FF330022049399461223B4
:103E80001F9284E701230993F4E7012304939946E1
:103E90001A46F5E76A68490001326A607BE7022545
:103EA000ACE7F10708D5DDE90A01D7E90023FCF703
:103EB0000FFBCDE90A010135761008379FE700F0C6
:103EC000A580DDE90E01CBF10006A24B06F00F0242
:103ED00003EBC203D3E90023FCF7FAFA022500231F
:103EE000CDE902019C4F3611002E40F08480002B5A
:103EF0008DD10D9B002B00F08B80DDE90223CDE9F5
:103F00000A23DDE90A010022944BFCF753FD002847
:103F10007ED0B9F1000F7BD0049B002B37DDDDE9AB
:103F20000A0100228E4BFCF7D3FACDE90201049E70
:103F30000BF1FF3701352846FCF764FADDE902236F
:103F4000FCF7C6FA874B0022FCF710F9CDE90A010D
:103F50000B9BA3F150750B95002E5CD1DDE902019E
:103F60000022814BFCF700F90A9A2B46CDE90201A9
:103F7000FCF73EFD002840F0F782DDE902010A9AD5
:103F800005F10043FCF716FD002840F0EB82DDE967
:103F90000E23CDE90223139B002BC0F25081BBF10D
:103FA0000E0F00F34C816B4B03EBCB03D3E90023E3
:103FB000CDE904231F9B002B80F2DA80B9F1000FBA
:103FC00000F3D68040F0CD82DDE904010022664B8B
:103FD000FCF77EFADDE90223FCF700FD4E464F4672
:103FE000002840F0A482069B069A5D1C31230BF149
:103FF000010B13709FE2F20705D5D7E90023FCF708
:1040000067FA01230135761008376DE7022570E75E
:104010005F464E468FE7069A4E4B32441192099AFC
:10402000711E002A48D003EBC103D3E9002300200E
:104030004E49FCF777FBDDE90A23FCF795F8CDE95B
:104040000A01069DDDE90201FCF7F2FC0646FCF7D9
:10405000D9F902460B46DDE90201FCF785F8DDE9F6
:104060000A23303605F8016BCDE90201FCF7A2FC0A
:10407000002864D1DDE9022300203849FCF774F8F8
:10408000DDE90A23FCF796FC002840F0B980119B7B
:104090009D423FF47CAFDDE90A010022304BFCF782
:1040A00017FA0022CDE90A01DDE902012C4BFCF7E9
:1040B0000FFACDE90201C5E703EBC101D1E9000127
:1040C000DDE90A23FCF704FACDE90A01069DDDE9E2
:1040D0000201FCF7ADFC0646FCF794F902460B46DC
:1040E000DDE90201FCF740F83036119B05F8016B61
:1040F000AB42CDE902014FF0000224D11B4BDDE9B8
:104100000A01FCF733F802460B46DDE90201FCF731
:104110006FFC002874D1DDE90A2300201349FCF765
:1041200023F802460B46DDE90201FCF743FC0028B8
:104130003FF42DAF15F8013C6A1E302B01D0BB4671
:104140004DE01546F6E7064BFCF7C2F9CDE9020152
:10415000BDE700BF98660008706600080000F03FE9
:104160000000244000001C40000014400000E03F1C
:10417000069DDDE90267DDE9042330463946FCF798
:10418000D1FAFCF755FC8046FCF73CF9DDE9042345
:10419000FCF79EF902460B4630463946FBF7E4FF32
:1041A00008F1300605F8016B069E0246AE1BB145CC
:1041B0000B4637D1FBF7DAFF06460F4602460B46A1
:1041C000DDE90401FCF7F6FBC8B9DDE9040132467C
:1041D0003B46FCF7E5FB10B118F0010F0FD151463B
:1041E000204600F001FD0023209A2B700BF1010303
:1041F0001360229B002B3FF4ECAC1D60E9E45F46AA
:1042000015F8012C6B1E392A06D1069A9A4207D15D
:1042100030231370134601371A7801321A708EE773
:104220001D46EDE70022B54BFCF752F900220023B2
:1042300006460F46FCF7B4FB00289CD0CFE7099A4E
:10424000002A00F029811E9A012A00F30E81109A9B
:10425000002A00F0068103F233434546089E079A80
:1042600001211A4420469844079200F05DFD07465C
:10427000002D0BDD079B002B08DDAB42A8BF2B46B2
:10428000079AA8EB0308ED1AD31A0793089BFBB112
:10429000099B002B00F00481002E11DD39463246C7
:1042A000204600F0D7FD524601460746204600F062
:1042B00044FD51460A90204600F096FC0A9B9A461F
:1042C000089B9A1B04D05146204600F0C3FD82464D
:1042D0000121204600F028FD0C9B0646002B40F3F0
:1042E000E1801A460146204600F0B4FD1E9B0646BA
:1042F000012B40F3DA8000230893336906EB830334
:10430000186900F0C3FCC0F12000079B184410F0AE
:104310001F0000F0F080C0F12003042B40F3E28086
:10432000079BC0F11C008044054403440793B8F187
:10433000000F05DD51464246204600F0D9FD824679
:10434000079B002B05DD31461A46204600F0D0FDC4
:1043500006460D9B002B00F0D3803146504600F0FE
:1043600018FE002880F2CC80002351460A22204605
:1043700000F051FC099B0BF1FF3B8246002B00F043
:10438000A981002339460A22204600F044FC049B00
:104390000746002B03DC1E9B022B00F3B980002D87
:1043A00005DD39462A46204600F0A2FD0746089B57
:1043B000002B00F010817968204600F0E1FB0546F3
:1043C0003A6907F10C01023292000C3000F0C0FB98
:1043D00001222946204600F08BFD07970746029BE5
:1043E000DDF8188003F00103089331465046FFF7CB
:1043F0001FFB0799054600F13009504600F0C9FD42
:104400003A4602903146204600F0DDFDC368024680
:10441000002B40F0E28001460990504600F0B9FDC3
:104420000346099A11462046099300F0DDFB099BDB
:10443000002B40F0D4801E9A002A40F0D080089AC9
:10444000002A40F0CC80B9F1390F00F0E880029BDF
:10445000002B01DD05F1310908F1010588F8009014
:104460006BE0129BC3F13603F7E6089B09F1FF36B8
:10447000B342B7BF089B9E1BF21A0C9BBFBF0896A6
:104480009B180C930026B9F1000FB9BFA8EB0905E2
:10449000002345464B46E2E6089E4546099FE7E66F
:1044A000089A10E71E9B012B18DC029BB3B9039BF3
:1044B000C3F31303A3B9039B23F000431B0D1B0598
:1044C0002BB1079B08F101080133079301230893DF
:1044D0000C9B002B7FF411AF012016E70023F6E7B9
:1044E000029BF4E73FF423AF079A1C331A44984425
:1044F0001D4413461AE70346F6E700BF00002440B8
:10450000B9F1000F33DC1E9B022B30DDCDF810908B
:10451000049B63B931460522204600F07CFB01462E
:104520000646504600F035FD00283FF75CAD1F9B66
:10453000069D6FEA030B002307933146204600F0E7
:1045400053FB002F3FF44BAE079B2BB1BB4203D074
:104550001946204600F048FB3946204600F044FB4F
:104560003DE600263746E2E7BB4637463BE5099B7A
:10457000CDF81090002B7FF412AF069D31465046C7
:10458000FFF756FA069B00F1300905F8019B049AE3
:10459000EB1A9A4200F38180069B012AACBF9B185C
:1045A000013398460023079351460122204600F02C
:1045B0009FFC3146824600F0ECFC002834DC02D13E
:1045C00019F0010F30D1454615F8013C6A1E302B19
:1045D000B3D11546F8E73846FFE6012322E7029AF1
:1045E000002A04DB28D11E9A32BB089A22BB002B7A
:1045F0007FF732AF51460122204600F079FC314668
:10460000824600F0C6FC002805DC7FF425AF19F0D7
:10461000010F3FF421AFB9F1390F7FF41BAF3923FC
:1046200008F1010808F8013C454615F8013C6A1EEE
:10463000392B3AD001333FE0002B08F1010505DDAD
:10464000B9F1390FEBD009F1010907E7069B049A8C
:10465000EB1A9342A84605F8019CA5D051460023C9
:104660000A22204600F0D7FA079B8246BB424FF051
:104670000A024FF000030799204604D100F0CBFA5C
:1046800007900746B1E600F0C6FA002307900A2219
:104690003946204600F0BFFAF3E7514600230A22CC
:1046A000204600F0B8FA824668E7069B934205D19F
:1046B0003123069A0BF1010B13703EE71546B4E760
:1046C000094BFFF7A3BA229B002B7FF47DAA074B6F
:1046D000FFF79CBA049B002B3FF74FAF1E9B022BAA
:1046E0007FF74BAF14E700BF3D6600085F66000828
:1046F000044B1B68186A044B002808BF1846F030AA
:10470000704700BF180000201C050020024B014626
:10471000186800F003B800BF180000202DE9F74F1B
:1047200001F10B04162C814607D934F0070405D596
:104730000C23C9F80030002631E110248C42F7D355
:10474000484600F011FAB4F5FC7F9B4D36D204F1D7
:1047500008022A445668A2F108018E424FEAD403A7
:1047600002D1D668B24210D07368F268B16823F003
:104770000303CA60334491605A6842F001025A60F0
:10478000484600F0F7F9083609E102338B4A2E69F2
:10479000114696426DD0706820F00300071B0F2F62
:1047A00047DD331944F0010474606B612B61DA60FA
:1047B0009A6047F001025A603750E1E7630A2AD055
:1047C000042B12D8A30938335A1C05EBC2025668D1
:1047D000A2F10800864206D0726822F00302111B83
:1047E0000F291CDD013B0133D0E7142B01D85B33CB
:1047F000EAE7542B02D8230B6E33E5E7B3F5AA7F23
:1048000002D8E30B7733DFE740F25452934204D8E7
:10481000A30C7C33D8E73F23D6E77E23D4E70029D7
:10482000F16804DBB368D9608B60B318A4E70E4667
:10483000D0E7002F6A612A6105DB3044436843F00A
:10484000010343609CE7B0F5007F44D20122C00819
:10485000871002FA07F76A6801303A436A6055F830
:10486000307005EBC002083AF260B76045F830607E
:10487000FE6001209A1000FA02F26868824200F29B
:104880009F80024206D123F003035200024203F14B
:104890000403FAD005EBC30CE0469E46D8F80C6042
:1048A000464553D10EF1010E1EF0030F08F1080822
:1048B000F4D1980779D16B6823EA02036B606868CA
:1048C000520082427CD8002A7AD073460242E1D15B
:1048D00004335200FAE7420A042A15D88209383212
:1048E000571C55F8377005EBC20EBE4526D1012086
:1048F000921000FA02F2686810436860C6F80CE093
:10490000B760CEF80860B3E7142A01D85B32E7E756
:10491000542A02D8020B6E32E2E7B2F5AA7F02D81F
:10492000C20B7732DCE740F25457BA429ABF820C8E
:104930007C327E22D4E7BF68BE4504D07A6822F07C
:1049400003029042F7D3D7F80CE0D7E77068F76816
:1049500020F00300A0EB040ABAF10F0F10DDB268DB
:10496000331944F001047460D760BA604AF0010260
:104970006B612B61D96099605A6046F800A0FFE630
:10498000BAF1000F0FDB3044436843F0010343608A
:1049900056F8083F4846DF60BB6000F0EBF8304651
:1049A00003B0BDE8F08F3E467AE75CF80809013BAA
:1049B00084453FF47EAF82E70C0100201401002003
:1049C000D5F808B0DBF8046026F00306B44203D83B
:1049D000331B0F2B00F395804F4A0BEB0603176830
:1049E0004E4A103711682744013105D04C4901392E
:1049F0000F44013149420F40394648460192009325
:104A000000F090FBB0F1FF3F804655D0009B019A2B
:104A1000834201D9AB454FD14248434501688246A4
:104A200007EB010EC0F800E03F4913D10B4211D152
:104A3000AB683E4446F001065E603C4ADAF800305E
:104A400011688B4288BF1360394A11688B4288BF56
:104A5000136031E0106801301BBFA8EB03037344FF
:104A6000C2F80080CAF8003018F007001CBFC0F17F
:104A7000080080442A4B474418440F40C71B39465E
:104A8000484600F04FFB431C04BF40460027DAF8BD
:104A90000030A0EB08003B44074447F00107AB455A
:104AA000C5F80880CAF80030C8F80470C5D00F2EC9
:104AB00010D80123C8F80430AB685A6822F003020A
:104AC0009442A2EB040301D80F2B1ADC484600F0F5
:104AD00051F830E60522DBF804300C3E26F00706DC
:104AE00003F001033343CBF804300F2E0BEB060326
:104AF0005A609A60A1D90BF10801484600F020FCE9
:104B00009BE7AE6844F0010243F001033444726055
:104B1000AC60636034E600BFDC0A002014050020AE
:104B200080000000AC0A00207F000000D40A0020B2
:104B3000D80A002010B5C9B202449042034601D100
:104B4000002010BD1C7801308C42F6D1184610BDF3
:104B500010B5431E0A44914200D110BD11F8014B1B
:104B600003F8014FF7E70000014800F0A5BC00BFC3
:104B7000720B0020014800F0A0BC00BF720B0020A7
:104B800070B5456A04460E463DB91020FFF7BEFDDC
:104B90006062456085600560C560656AEB6883B1E9
:104BA000636ADB6853F82600B8B9012101FA06F5FB
:104BB0006A1D9200204600F03FFB60B146608560B0
:104BC0000EE021220421204600F036FB636AE860F3
:104BD000DB68002BE4D1002070BD026843F826207A
:104BE00000230361C36070BD70B5446A06460D467C
:104BF0003CB91020FFF78AFD706244608460046055
:104C0000C4603DB1736A6A68DB6853F8221029609A
:104C100043F8225070BD2DE9F0411F4606460C4670
:104C200000230D6901F1140EDEF80000013381B29A
:104C300002FB0171000C0F0C02FB007089B201EB4A
:104C400000419D424FEA10474EF8041BECDCD7B1FF
:104C5000A3689D4212DB616830460131FFF790FF87
:104C60008046226904F10C01023292000C30FFF7F9
:104C70006FFF21463046FFF7B7FF444604EB85033C
:104C800001355F6125612046BDE8F081020C120408
:104C90000346B2B90304102013F07F4F04BF1B0278
:104CA000083013F0704F04BF1B01043013F0404F65
:104CB00004BF9B000230002B06DB5B0003D50130F4
:104CC00070470020E8E7202070470368014613F092
:104CD00007020BD0DA0723D4980749BF5B089B086B
:104CE00001200B605CBF0B600220704798B2A8B92E
:104CF00010201B0C13F0FF0F04BF1B0A08301A070B
:104D000004BF1B0904309A0704BF9B080230DA076E
:104D100002D45B0806D001300B6070471046E9E70B
:104D2000002070472020704710B50C460121FFF786
:104D300027FF01224461026110BD2DE9F74F14469F
:104D40000A69236989469A42BEBF0B46A1461C46A2
:104D5000D9F81070D4F810A0D9F80830D9F8041098
:104D600007EB0A069E42C8BF0131FFF709FF00F1B9
:104D700014052B46002205EB8608434516D304F1A3
:104D8000140209F1140102EB8A0301EB8707019376
:104D9000019C134694420CD8002E03DD58F8043DC4
:104DA000002B54D0066103B0BDE8F08F43F8042B0C
:104DB000E3E7B3F800A00432BAF1000F20D0AE460A
:104DC00089464FF0000C59F8044BBEF800B0A3B26E
:104DD0000AFB03B34FEA144BDEF8004063444FEA8A
:104DE000144C0AFB0BC404EB13449BB243EA044388
:104DF0004F454FEA144C4EF8043BE4D8CEF800C0BF
:104E000032F8029CB9F1000F1FD0AE468C464FF02D
:104E1000000A2B68BCF80040BEF802B09BB209FB48
:104E200004B4A24443EA0A434EF8043B5CF8043B52
:104E3000BEF800401B0C09FB0343674503EB1A4314
:104E40004FEA134AE6D8CEF800300435A0E7013E19
:104E5000A2E700002DE9F843154612F003020646CA
:104E60000F4607D0214C013A002354F82220FFF7C7
:104E7000D2FE0746AD1035D0746A3CB91020FFF75A
:104E800045FC7062446084600460C460D6F824808D
:104E9000D8F808404CB940F271213046FFF744FF82
:104EA00000230446C8F8080003604FF00008EB0731
:104EB0000AD5394622463046FFF73FFF814639463C
:104EC0003046FFF791FE4F466D100BD0206838B981
:104ED000224621463046FFF730FF2060C0F80080B0
:104EE0000446E4E73846BDE8F88300BF6067000881
:104EF0002DE9F0470C460746164623694FEA621A29
:104F00000AEB03094968A36809F10105AB4231DBEB
:104F10003846FFF735FE00228046114600F11403A3
:104F200052452ADB20692AEAEA7A04F1140116F0D4
:104F30001F0203EB8A0301EB800E22D00020C2F196
:104F4000200C0E689640304343F8040B51F8040BD4
:104F50008E4520FA0CF0F4D8186008B109F102056A
:104F6000013D3846C8F810502146FFF73DFE404647
:104F7000BDE8F08701315B00C8E743F82210013239
:104F8000CEE7043B51F8042B8E4543F8042FF9D8A3
:104F9000E6E703690A6930B59B1A0CD19200143018
:104FA00014318418114454F8045D51F8042D9542CD
:104FB00003D005D30123184630BDA042F3D3FAE74E
:104FC0004FF0FF33F7E72DE9F0470D46074611464E
:104FD00028461446FFF7DDFF061E08D13146384645
:104FE000FFF7CEFD012346610361BDE8F087A4BF52
:104FF00023462C4638466168A6BF1D46002601267A
:10500000FFF7BEFD4FF0000CC6602B69266904F166
:10501000140205F1140902EB860709EB830800F17D
:10502000140152F804AB59F8045B1FFA8AF3634485
:10503000ACB21B1B2C0CC4EB1A4404EB23449BB2F4
:105040004FEA244CC84543EA0444964641F8044BD1
:10505000E7D8BE4505D351F8043D8BB10661BDE8E4
:10506000F0875EF8044BA2B26244131403EB1443BE
:1050700092B242EA03424FEA234C41F8042BE8E79C
:10508000013EE8E72DE9F3411C4601219046089EC8
:10509000099DFFF775FDC4F31302C4F30A540746D4
:1050A00034BB0192B8F1000F27D002A840F8088D58
:1050B000FFF70BFE0099F0B1019AC0F1200302FA4C
:1050C00003F30B43C2407B610192019B002B14BF91
:1050D00002210121BB613961C4B1A4F2334404440B
:1050E0003460C0F135002860384602B0BDE8F08178
:1050F00042F48012D5E77961E7E701A8FFF7E5FD03
:105100000121019B39617B612030E5E7A0F232404B
:1051100007EB810330601869FFF7B8FDC0EB411061
:10512000E1E7000038B50023054C0546084623603A
:1051300000F080FB431C02D1236803B12B6038BD13
:10514000780B002093682DE9F74F81460C461746EF
:10515000002B60D04FF0000B5E46D2F800A056B393
:10516000A3689E4244D3A28912F4906F3ED00223DA
:1051700025682169A5EB0108656905EB450595FBE7
:10518000F3F508F1010333449D4238BF1D46530532
:1051900046D529464846FFF7C1FA98B90C23C9F805
:1051A0000030A3894FF0FF3043F04003A381002378
:1051B000BB607B6031E0DAF800B0DAF804600AF135
:1051C000080ACCE7424621690190FFF7C1FCA28999
:1051D000019B22F4906242F08002A2812361434449
:1051E000236033466561A5EB0805A5609E4200D2A9
:1051F00033461A4659462068019300F071F9A268B7
:10520000019BD21AA260226813442360BB689E1BD4
:10521000BE60002ECFD10020786003B0BDE8F08FD3
:105220002A46484600F076F903460028D6D121697F
:10523000484600F085F8B1E710B55143FFF76EFA24
:10524000044698B150F8042C22F00302043A242AB0
:105250001BD8132A17D900211B2A0160416007D8E7
:1052600000F1080300221A605A609A60204610BDBF
:10527000242A8160C16011BF00F11003016100F1B7
:1052800018034161EEE70346ECE70021FDF7D4FB8C
:10529000ECE700002DE9F8438946254F0646FFF765
:1052A00063FCBB68DFF894805D68A8F1110425F009
:1052B0000305A4EB09042C44B4FBF8F4013C08FBFF
:1052C00004F4444505DA3046FFF754FC0020BDE8FD
:1052D000F88300213046FFF725FFBB682B44984236
:1052E000F1D161423046FFF71DFF013010D100219E
:1052F0003046FFF717FFBA68831A0F2BE3DD0D491D
:1053000043F0010309685360401A0B490860DAE76B
:10531000BB68094A2D1B45F001055D6013683046E6
:105320001C1B1460FFF726FC0120BDE8F88300BFBA
:105330000C01002014050020AC0A002080000000B1
:105340002DE9F04104468846002900F0AB80FFF7C4
:105350000BFC58F8042C544D22F00100A8F108036E
:105360001F18A9687E688F4226F0030602F001022A
:105370001BD130443AB958F8082C9B1A996810444C
:10538000DA68CA60916040F001025A60AB60474B36
:105390001B68984204D3464B20461968FFF77AFFF2
:1053A0002046BDE8F041FFF7E5BB7E60002A39D119
:1053B00058F8081C05F1080E5B1A084499687145F5
:1053C00032D0D3F80CE0C1F80CE0CEF80810B919CF
:1053D0004968C9070AD43044B9683ABB354EB1426E
:1053E00024D101226B612B61D960996040F00101E9
:1053F00059601850002AD3D1B0F5007F1AD201228B
:10540000C00881108A40696801300A436A6055F813
:10541000301005EBC002083ADA60996045F8303088
:10542000CB60BDE70022D2E70122D0E7FE68CE6064
:10543000B160DBE7420A042A13D882093832511CD2
:1054400055F8311005EBC2068E4224D1012092108E
:1054500000FA02F2686802436A60DE609960B36035
:10546000DEE7142A01D85B32E9E7542A02D8020B9E
:105470006E32E4E7B2F5AA7F02D8C20B7732DEE7DC
:1054800040F254518A429ABF820C7C327E22D6E787
:1054900089688E4204D04A6822F003029042F7D312
:1054A000CE68DAE7BDE8F0810C0100201805002085
:1054B000DC0A0020140100207047704782B001B957
:1054C00001A942B14BB113780B601278101C18BFC0
:1054D000012002B070471046FBE76FF00100F8E7CB
:1054E000884210B501EB020303D8421E99420CD149
:1054F00010BD9842F9D28118D21AD34200D110BD02
:1055000013F8014D01F8014DF7E711F8014B02F8CE
:10551000014FEBE72DE9F74F82460C4629B91146BA
:1055200003B0BDE8F04FFFF7F9B80192FFF71CFB9D
:10553000019A54F8045C02F10B08B8F1160FA4F1BB
:10554000080925F003060AD938F0070809D50C2305
:105550000027CAF80030384603B0BDE8F08F4FF09E
:1055600010089045F3D3B04540F34881A94B09EBAF
:105570000601D3F808E09B4671454B6805D023F03F
:10558000010008444068C70747D423F0030371456E
:1055900006EB030719D108F1100087423FDBA7EBA8
:1055A000080709EB080347F00107CBF808305F60F4
:1055B00054F8043C504603F0010343EA080344F85E
:1055C000043CFFF7D7FA2746C5E7B84527DCCB6888
:1055D0008A68D3609A60A7EB08000F28D9F80430D6
:1055E00009EB070240F20C8103F0010309EB08010B
:1055F00043EA080340F00100C9F8043048605368EA
:10560000083143F0010353605046FFF799FE5046BE
:10561000FFF7B0FA09F108079DE700231946E807EC
:1056200000F1858054F8085CA9EB0505686820F056
:1056300003003044002977D0714551D1034408F16B
:1056400010018B4270DB2F46EA6857F8081FCA60CA
:105650009160321F242A3CD8132A37D921681B2A8B
:10566000A9606168E9601CD805F1100204F1080125
:10567000086810604868506089689160A3EB08036F
:1056800005EB080243F00103CBF8082053606B6878
:1056900003F0010343EA08036B605046FFF76AFA20
:1056A00059E7A168242A2961E16818BF05F11802A9
:1056B000696109BF226904F11001AA61606902BF32
:1056C00005F1200204F11801E861D1E73A462146CC
:1056D000CEE7214638460193FFF702FF019BCDE755
:1056E000C718B84520DCCB688A68D3609A60284622
:1056F000EB6850F8082FD3609A60321F242A43D8F1
:10570000132A3FD923681B2AAB606368EB6024D857
:1057100005F1100004F108031A6802605A6842603B
:105720009B688360A94656E780450746DFDD114642
:105730005046FEF7F3FF07460028AED054F8043C6D
:10574000A0F1080223F001034B449A4220D150F803
:10575000047C27F0030737443DE7A368242A2B6124
:10576000E36818BF05F118006B6109BF236904F1F4
:105770001003AB61626902BF05F1200004F1180358
:10578000EA61C9E72346C7E72146FFF7A9FEC9E753
:10579000321F242A2ED8132A29D923681B2A0360F2
:1057A000636843600ED800F1080304F10802116831
:1057B00019605168596092689A6021465046FFF717
:1057C000BFFD6AE7A368242A8360E36818BF04F179
:1057D0001002C36009BF236900F11003036161690E
:1057E00002BF00F1180304F118024161DFE703462C
:1057F0002246DCE72146FFF773FEDEE73746EAE69E
:1058000003F001031F43C9F80470536843F0010318
:105810005360FCE60C01002049B1FF2A8BBF8A23AC
:105820000A700360012088BF4FF0FF3070470846C0
:1058300070470000044B0246196809B90349196012
:10584000186802441A607047E00A00207C0B0020B0
:10585000F8B500BFF8BC08BC9E467047F8B500BF5D
:08586000F8BC08BC9E4670472D
:1058680002030405060708090A0B0C0D0E0F101099
:105878000000000000000000000000000000000020
:105888000000000000000000000000000000000010
:10589800000000000000000C000C000C000C000CC4
:1058A800000C000C000C000C000C000C0000000C9C
:1058B800000C0000000000000000001B001B001B83
:1058C800001B001B0000000000000000000000009A
:1058D8000000000000000000000000000000801927
:1058E800801980198019C07FC07F80190033C07F5C
:1058F800C07F003300330033003300000000000095
:105908000000001E003F807580650074003C001E8A
:1059180000078005806580658075003F001E0004D3
:10592800000400000000007000D840D8C0D880D91A
:1059380000730006000C801BC036C066C046C00657
:1059480080030000000000000000001E003F00333C
:1059580000330033001E000CC03CC06680638061C9
:105968008063C03E801C0000000000000000000CA6
:10597800000C000C000C000C0000000000000000EF
:10598800000000000000000000000000000000000F
:10599800800000010003000600060004000C000C53
:1059A800000C000C000C000C0004000600060003AC
:1059B80000018000002000100018000C000C0004FA
:1059C8000006000600060006000600060004000C9B
:1059D800000C0018001000200000000C002D003FF3
:1059E800001E00330000000000000000000000005E
:1059F800000000000000000000000000000000009F
:105A08000000000C000C000C000CC0FFC0FF000CD4
:105A1800000C000C000C000000000000000000005A
:105A2800000000000000000000000000000000006E
:105A380000000000000000000000000C000C000442
:105A48000004000800000000000000000000000042
:105A5800000000000000001E001E00000000000002
:105A6800000000000000000000000000000000002E
:105A7800000000000000000000000000000000001E
:105A88000000000C000C00000000000000000003F3
:105A9800000300030006000600060006000C000CC8
:105AA800000C000C0018001800180000000000008E
:105AB8000000001E003F0033806180618061806DBE
:105AC800806D8061806180610033003F001E0000AE
