:020000040800F2
:1000000000500020E51A0008851A0008871A000829
:10001000891A00088B1A00088D1A000800000000D9
:100020000000000000000000000000008F1A00081F
:10003000911A000800000000931A0008951A0008A1
:100040002D1B00082D1B00082D1B00082D1B000870
:100050002D1B00082D1B00082D1B00082D1B000860
:100060002D1B00082D1B00082D1B00082D1B000850
:100070002D1B00082D1B00082D1B00082D1B000840
:100080002D1B00082D1B00082D1B00082D1B000830
:100090002D1B00082D1B00082D1B00082D1B000820
:1000A0002D1B00082D1B00082D1B00082D1B000810
:1000B0002D1B00082D1B00082D1B00082D1B000800
:1000C0002D1B00082D1B00082D1B00082D1B0008F0
:1000D0002D1B00082D1B00082D1B00082D1B0008E0
:1000E0002D1B00082D1B00082D1B00080000000020
:1000F0000000000000000000000000000000000000
:0C01000000000000000000005FF808F1A3
:1001100010B5054C237833B9044B13B10448AFF341
:1001200000800123237010BD0C000020000000009F
:10013000881B000808B5034B1BB103490348AFF304
:10014000008008BD0000000010000020881B00088F
:1001500081F0004102E000BF83F0004330B54FEA78
:1001600041044FEA430594EA050F08BF90EA020FE5
:100170001FBF54EA000C55EA020C7FEA645C7FEA78
:10018000655C00F0E2804FEA5454D4EB5555B8BF9B
:100190006D420CDD2C4480EA020281EA030382EA0C
:1001A000000083EA010180EA020281EA0303362D9E
:1001B00088BF30BD11F0004F4FEA01314FF4801C71
:1001C0004CEA113102D0404261EB410113F0004F83
:1001D0004FEA03334CEA133302D0524263EB43033A
:1001E00094EA050F00F0A780A4F10104D5F1200ED8
:1001F0000DDB02FA0EFC22FA05F2801841F1000133
:1002000003FA0EF2801843FA05F359410EE0A5F106
:1002100020050EF1200E012A03FA0EFC28BF4CF037
:10022000020C43FA05F3C01851EBE37101F00045ED
:1002300007D54FF0000EDCF1000C7EEB00006EEBFA
:100240000101B1F5801F1BD3B1F5001F0CD3490884
:100250005FEA30004FEA3C0C04F101044FEA4452DB
:1002600012F5800F80F09A80BCF1004F08BF5FEA62
:10027000500C50F1000041EB045141EA050130BD42
:100280005FEA4C0C404141EB010111F4801FA4F1E5
:100290000104E9D191F0000F04BF01460020B1FA3A
:1002A00081F308BF2033A3F10B03B3F120020CDA72
:1002B0000C3208DD02F1140CC2F10C0201FA0CF050
:1002C00021FA02F10CE002F11402D8BFC2F1200CB5
:1002D00001FA02F120FA0CFCDCBF41EA0C0190406B
:1002E000E41AA2BF01EB0451294330BD6FEA0404B4
:1002F0001F3C1CDA0C340EDC04F11404C4F120029F
:1003000020FA04F001FA02F340EA030021FA04F3B0
:1003100045EA030130BDC4F10C04C4F1200220FA07
:1003200002F001FA04F340EA0300294630BD21FA45
:1003300004F0294630BD94F0000F83F4801306BF0B
:1003400081F480110134013D4EE77FEA645C18BFFF
:100350007FEA655C29D094EA050F08BF90EA020F96
:1003600005D054EA000C04BF1946104630BD91EA8E
:10037000030F1EBF0021002030BD5FEA545C05D191
:100380004000494128BF41F0004130BD14F58004D0
:100390003CBF01F5801130BD01F0004545F0FE4144
:1003A00041F470014FF0000030BD7FEA645C1ABF79
:1003B000194610467FEA655C1CBF0B46024650EAB0
:1003C000013406BF52EA033591EA030F41F40021DC
:1003D00030BD00BF90F0000F04BF0021704730B562
:1003E0004FF4806404F132044FF000054FF0000137
:1003F00050E700BF90F0000F04BF0021704730B5F8
:100400004FF4806404F1320410F0004548BF4042CC
:100410004FF000013EE700BF42004FEAE2014FEA21
:1004200031014FEA02701FBF12F07F4393F07F4FFC
:1004300081F06051704792F0000F14BF93F07F4F2E
:10044000704730B54FF4607401F0004521F0004171
:1004500020E700BF50EA010208BF704730B54FF0F7
:1004600000050AE050EA010208BF704730B511F0FC
:10047000004502D5404261EB41014FF4806404F134
:1004800032045FEA915C3FF4DCAE4FF003025FEAB6
:10049000DC0C18BF03325FEADC0C18BF033202EB3E
:1004A000DC02C2F1200300FA03FC20FA02F001FA98
:1004B00003FE40EA0E0021FA02F11444C1E600BF37
:1004C0004FEA4102B2F1E04324BFB3F5001CDCF176
:1004D000FE5C0DD901F0004C4FEAC0024CEA5070AE
:1004E000B2F1004F40EB830008BF20F001007047DD
:1004F00011F0804F21D113F13872BCBF01F00040E0
:10050000704741F480114FEA5252C2F11802C2F111
:10051000200C10FA0CF320FA02F018BF40F0010092
:100520004FEAC1234FEAD32303FA0CFC40EA0C0044
:1005300023FA02F34FEA4303CCE77FEA625307D181
:1005400050EA01331EBF4FF0FE4040F440007047B8
:1005500001F0004040F0FE4040F40000704700BF52
:1005600080F0004002E000BF81F0004142001FBF68
:100570005FEA410392EA030F7FEA226C7FEA236C71
:100580006AD04FEA1262D2EB1363C1BFD218414066
:1005900048404140B8BF5B42192B88BF704710F0FC
:1005A000004F40F4000020F07F4018BF404211F09F
:1005B000004F41F4000121F07F4118BF494292EA07
:1005C000030F3FD0A2F1010241FA03FC10EB0C0033
:1005D000C3F1200301FA03F100F0004302D54942C0
:1005E00060EB4000B0F5000F13D3B0F1807F06D36D
:1005F00040084FEA310102F10102FE2A51D2B1F165
:10060000004F40EBC25008BF20F0010040EA030059
:100610007047490040EB000010F4000FA2F1010206
:10062000EDD1B0FA80FCACF1080CB2EB0C0200FA90
:100630000CF0AABF00EBC25052421843BCBFD040DE
:100640001843704792F0000F81F4000106BF80F458
:1006500000000132013BB5E74FEA41037FEA226C1B
:1006600018BF7FEA236C21D092EA030F04D092F0E6
:10067000000F08BF0846704790EA010F1CBF00201A
:10068000704712F07F4F04D1400028BF40F0004077
:10069000704712F100723CBF00F50000704700F097
:1006A000004343F0FE4040F4000070477FEA2262BE
:1006B00016BF08467FEA23630146420206BF5FEA8F
:1006C000412390EA010F40F4800070474FF000038F
:1006D00004E000BF10F0004348BF40425FEA000C56
:1006E00008BF704743F0964301464FF000001CE0FE
:1006F00050EA010208BF70474FF000030AE000BF54
:1007000050EA010208BF704711F0004302D5404291
:1007100061EB41015FEA010C02BF84460146002003
:1007200043F0B64308BFA3F18053A3F50003BCFA1E
:100730008CF2083AA3EBC25310DB01FA02FC6344CB
:1007400000FA02FCC2F12002BCF1004F20FA02F2D2
:1007500043EB020008BF20F00100704702F12002C5
:1007600001FA02FCC2F1200250EA4C0021FA02F226
:1007700043EB020008BF20EADC7070474FF0FF0C2B
:100780001CEAD0521EBF1CEAD15392EA0C0F93EA26
:100790000C0F6FD01A4480EA010C400218BF5FEAC8
:1007A00041211ED04FF0006343EA501043EA51113B
:1007B000A0FB01310CF00040B1F5000F3EBF490035
:1007C00041EAD3715B0040EA010062F17F02FD2A39
:1007D0001DD8B3F1004F40EBC25008BF20F001001C
:1007E000704790F0000F0CF0004C08BF49024CEA33
:1007F000502040EA51207F3AC2BFD2F1FF0340EAC5
:10080000C250704740F400004FF00003013A5DDC35
:1008100012F1190FDCBF00F000407047C2F1000276
:10082000410021FA02F1C2F1200200FA02FC5FEA63
:10083000310040F1000053EA4C0308BF20EADC70AD
:10084000704792F0000F00F0004C02BF400010F41F
:10085000000F013AF9D040EA0C0093F0000F01F0CC
:10086000004C02BF490011F4000F013BF9D041EAEE
:100870000C018FE70CEAD15392EA0C0F18BF93EAF0
:100880000C0F0AD030F0004C18BF31F0004CD8D11A
:1008900080EA010000F00040704790F0000F17BFA1
:1008A00090F0004F084691F0000F91F0004F14D0E7
:1008B00092EA0C0F01D142020FD193EA0C0F03D13F
:1008C0004B0218BF084608D180EA010000F0004042
:1008D00040F0FE4040F40000704740F0FE4040F41D
:1008E000400070474FF0FF0C1CEAD0521EBF1CEABC
:1008F000D15392EA0C0F93EA0C0F69D0A2EB0302DA
:1009000080EA010C49024FEA402037D04FF0805373
:1009100043EA111143EA10130CF000408B4238BF38
:100920005B0042F17D024FF4000C8B4224BF5B1A46
:1009300040EA0C00B3EB510F24BFA3EB510340EA94
:100940005C00B3EB910F24BFA3EB910340EA9C0042
:10095000B3EBD10F24BFA3EBD10340EADC001B01B2
:1009600018BF5FEA1C1CE0D1FD2A3FF650AF8B4256
:1009700040EBC25008BF20F0010070470CF0004C63
:100980004CEA50207F32C2BFD2F1FF0340EAC2508E
:10099000704740F400004FF00003013A37E792F04F
:1009A000000F00F0004C02BF400010F4000F013AAD
:1009B000F9D040EA0C0093F0000F01F0004C02BFA8
:1009C000490011F4000F013BF9D041EA0C0195E711
:1009D0000CEAD15392EA0C0F08D142027FF47DAFAA
:1009E00093EA0C0F7FF470AF084676E793EA0C0F9A
:1009F00004D14B023FF44CAF08466EE730F0004C98
:100A000018BF31F0004CCAD130F000427FF45CAF27
:100A100031F000437FF43CAF5FE700BF4FF0FF3C95
:100A200006E000BF4FF0010C02E000BF4FF0010CE8
:100A30004DF804CD4FEA40024FEA41037FEA226CB1
:100A400018BF7FEA236C11D001B052EA530C18BFD3
:100A500090EA010F58BFB2EB030088BFC81738BF38
:100A60006FEAE17018BF40F0010070477FEA226C26
:100A700002D15FEA402C05D17FEA236CE4D15FEA22
:100A8000412CE1D05DF8040B704700BF8446084656
:100A90006146FFE70FB5FFF7C9FF002848BF10F117
:100AA000000F0FBD4DF808EDFFF7F4FF0CBF01205C
:100AB00000205DF808FB00BF4DF808EDFFF7EAFFE6
:100AC00034BF012000205DF808FB00BF4DF808EDA1
:100AD000FFF7E0FF94BF012000205DF808FB00BF96
:100AE0004DF808EDFFF7D2FF94BF012000205DF81C
:100AF00008FB00BF4DF808EDFFF7C8FF34BF012029
:100B000000205DF808FB00BF42000ED2B2F1FE4F9C
:100B10000BD34FF09E03B3EB126209D44FEA0023CC
:100B200043F0004323FA02F070474FF00000704793
:100B300012F1610F01D1420202D14FF0FF30704734
:100B40004FF00000704700BF38B50E4B05461878CF
:100B50004FF47A73B3FBF0F30B4A1068B0FBF3F079
:100B600000F092F8044658B90F2D09D802462946DC
:100B70004FF0FF3000F054F8044B20461D6038BDA4
:100B8000012038BD000000200800002004000020E3
:100B9000074A08B51368032043F01003136000F000
:100BA0002DF80020FFF7D0FF00F04AFF002008BD1D
:100BB00000200240034A044B11681B780B44136069
:100BC000704700BF2800002000000020014B18687B
:100BD000704700BF2800002038B50446FFF7F6FF35
:100BE0000546631C1EBF044B1B78E418FFF7EEFF9D
:100BF000401B8442FAD838BD00000020074A00029A
:100C0000D36800F4E06023F4E0631B041B0C43F0A2
:100C1000BF6343F400330343D360704700ED00E04B
:100C2000174B30B5DC68C4F30224C4F10703251D5B
:100C3000042B28BF0423062D4FF0010598BF002484
:100C400005FA03F303F1FF3388BF033C1940A140C9
:100C500005FA04F4013C2240002842EA01024FEA6E
:100C60000212AFBF00F16040064B00F00F00D2B29D
:100C7000A5BFD2B200F561401A5480F8002330BD00
:100C800000ED00E014ED00E00138B0F1807F0AD201
:100C9000F021064B064A586082F8231000200722F4
:100CA00098601A6070470120704700BF10E000E0B4
:100CB00000ED00E02DE9F74F00221646654BDFF806
:100CC000A4E1DFF8A4C14FF001080C6808FA06F8A7
:100CD00008EA0404A0457FD14D68122D00F0AF80D2
:100CE00000F28880022D00F0A7807CD8002D00F053
:100CF0008E80012D00F09E804FF00F09FF2C93BFD6
:100D0000824606F18045083DD0F800B092BFB5009C
:100D1000D0F804B0AD0009FA05F82BEA080802FA89
:100D200005F588BF00F1040A48EA0505CAF8005035
:100D3000D1F804A01AF0805F4ED0474D464FAD6900
:100D400026F0030845F00105BD61BD6908F1804842
:100D500005F00105019508F5803806F0030B019DAB
:100D60004FEA8B0BD8F8085009FA0BF925EA090964
:100D70003A4DA84268D005F58065A84266D005F5D1
:100D80008065A84264D005F58065A8420CBF0325A4
:100D9000042505FA0BF545EA0905C8F808501D6851
:100DA0001AF4803F14BF2543A5431D605D681AF403
:100DB000003F14BF2543A5435D609D681AF4801F62
:100DC00014BF2543A5439D60DD681AF4001F14BFBE
:100DD0002C4325EA0404DC600136102E7FF473AF47
:100DE00003B0BDE8F08F032D22D0112D84D1CA6845
:100DF000043281E71A4FBD4209D012D8DFF86C9057
:100E00004D4504D009F580394D457FF475AF8A68AA
:100E1000C2B1012A0CBFC0F81080C0F814800822AB
:100E20006AE77545F3D06545F1D0DFF84490EBE70C
:100E3000002261E7CA685FE7CA6808325CE7CA68EF
:100E40000C3259E7042257E70025A2E70125A0E765
:100E500002259EE700040140001002400008014006
:100E600000002110000031100000321000001110AD
:100E7000000022100AB1016170470904FBE7026813
:100E8000536913F480630DD06FF4806353610423BE
:100E9000202203640023036380F83C3080F83D2067
:100EA00001207047184670472DE9F843044617465D
:100EB0009946C1F307488EB22568B8F1010F0CBFFF
:100EC0006B69AB6936EA030314BF0120002008B93F
:100ED000BDE8F8836B695A0512D52B68202243F4CC
:100EE00000732B606FF480636B6104232364002321
:100EF0000120236384F83C3084F83D20BDE8F8836A
:100F00007B1CD9D04FB900232022236384F83C30C6
:100F100084F83D200320BDE8F883FFF757FEA0EBDF
:100F200009008742C8D2EEE72DE9F843044690460F
:100F30001F46089EC1F307498DB22368B9F1010F1E
:100F40000CBF5B699B6935EA03030CBF01230023D7
:100F5000434502D00020BDE8F8837B1CEDD05FB98B
:100F600000232022236384F83C3084F83D200320B2
:100F700084F83E30BDE8F883FFF728FE801B8742E7
:100F8000DBD2EDE770B504460D46164623685B6973
:100F90001B0601D5002070BD2046FFF770FFA8B9E1
:100FA0006A1CF3D065B9236C202243F0200323642C
:100FB00000230320236384F83C3084F83D2070BD77
:100FC000FFF704FE801B8542E0D2ECE7012070BDF4
:100FD00070B504460D46164623685B695B0701D56C
:100FE000002070BD2046FFF74AFFA8B96A1CF3D065
:100FF00065B9236C202243F02003236400230320DF
:10100000236384F83C3084F83D2070BDFFF7DEFD9B
:10101000801B8542E0D2ECE7012070BD38B5044664
:1010200008B9012038BD90F83D3003F0FF021BB92C
:1010300080F83C2000F06EFC2423226884F83D30C8
:10104000136823F00103136000F0B8FB63682F4AB4
:10105000934230D82E4A9042E3D92E4A2168B0FB01
:10106000F2F24A6001320A62284A0138934232D8C9
:101070005B00B0FBF3F0431CC3F30B03042B38BF3E
:101080000423CB61226AE369002013430B60E2680A
:10109000236913438B60A26963691343CB600B68B8
:1010A00043F001030B602023206484F83D3020636B
:1010B00084F83E0038BD184A9042B2D9154D4FF41D
:1010C0009672B0FBF5F521686A434D604FF47A756E
:1010D000B2FBF5F2C6E7A26852B903EB4303B0FBDB
:1010E000F3F0431CC3F30B036BB143F40043C8E7B5
:1010F00019225343B0FBF3F0431CC3F30B0313B1AA
:1011000043F44043BDE70123BBE700BFA0860100D5
:101110007F841E0040420F00FF083D002DE9FF4183
:1011200004461F460D469046FFF750FD94F83D30AB
:101130000646202B04D00225284604B0BDE8F081E5
:101140000090192301225D492046FFF7EDFE00289B
:10115000F1D194F83C30012BEDD0012384F83C30E0
:1011600023681A68D2075EBF1A6842F001021A604B
:101170001A6822F400621A60212284F83D201022AD
:1011800084F83E2000222264A2F580326785E26264
:10119000628DC4F824802285E26A042A04D0012AE0
:1011A00002D012F5803F04D11A6842F480721A60AE
:1011B00002E0226B122AF7D000960A9B00224FF021
:1011C00001112046FFF7B0FE28BB23692268B3F562
:1011D000804F12D105F0FE05156133460A9A384951
:1011E0002046FFF761FE0546A0B9236803905A69BF
:1011F00003929B690393039B50E0EB1103F00603FA
:1012000043F0F00313612F4933460A9A2046FFF753
:101210004BFE48B1236C236C042B4FF0000307D125
:1012200084F83C30012587E72368EDB21D61D4E7DF
:1012300084F83C3003257FE732460A992046FFF7C1
:10124000A1FE40B1236C042BF4D12268136843F44F
:1012500000731360E6E7616A20684B1C63620B78D9
:10126000228D0361638D013B9BB263854769531EE9
:101270009BB27F0723850AD54BB18B1C63624B78E9
:10128000023A0361638D2285013B9BB2638532463E
:101290000A992046FFF79CFE0028D3D1238D002B0E
:1012A000CAD121680A6842F400720A60202284F8D8
:1012B0003C3084F83D2084F83E303DE702001000C9
:1012C000020001000800010003682DE9F341DB077B
:1012D000054610D42B689F075ED42B68190700F1D0
:1012E00095802B685A0700F1BF80EA69002A40F018
:1012F0002D81002014E0904C636803F00C03042B54
:1013000007D0636803F00C03082B0CD16368DE037D
:1013100009D523689C03DDD56B68002BDAD1012049
:1013200002B0BDE8F0816B68B3F5803F10D123684F
:1013300043F480332360FFF749FC06462368980393
:10134000C8D4FFF743FC801B6428F7D90320E7E7E4
:101350009BB9236823F480332360236823F480231C
:101360002360FFF733FC064623689903B2D5FFF7E5
:101370002DFC801B6428F7D9E8E7B3F5A02F23687C
:1013800003D143F480232360D1E723F48033236027
:10139000236823F48023CDE7674C636813F00C0FB8
:1013A00007D0636803F00C03082B10D16368DA03DD
:1013B0000DD423689B0702D52B69012BAFD123687D
:1013C0006A6923F0F80343EAC203236085E72A69C8
:1013D0005A4B6AB101221A60FFF7F8FB06462368F0
:1013E0009F07ECD4FFF7F2FB801B0228F7D9ADE78B
:1013F0001A60FFF7EBFB0646236898077FF56DAF91
:10140000FFF7E4FB801B0228F6D99FE7AA694A4C44
:101410004B4BDAB101221A60FFF7D8FB0646636A2C
:101420009B070DD54FF4FA52464B1B68B3FBF2F302
:10143000019300BF019B5A1E0192002BF9D150E786
:10144000FFF7C4FB801B0228E9D97FE71A60FFF78A
:10145000BDFB0646636A9F077FF543AFFFF7B6FB08
:10146000801B0228F6D971E7334CE369D80024D4F5
:101470000127E36943F08053E361E36903F080539C
:101480000093009B304E3368D90518D5EB68012BCB
:1014900026D1236A43F001032362FFF797FB41F251
:1014A00088368046236A9B073FD5002F3FF41DAF47
:1014B000E36923F08053E36117E70027E2E733682D
:1014C00043F480733360FFF781FB80463368DA05AD
:1014D000DCD4FFF77BFBA0EB08006428F6D935E7E6
:1014E000ABB9236A41F2883823F001032362236AEF
:1014F00023F004032362FFF769FB0646236A98077B
:10150000D3D5FFF763FB801B4045F7D91EE7052BBA
:10151000236A03D143F004032362BAE723F00103F3
:101520002362236A23F00403B6E7FFF74FFBA0EB27
:101530000800B042B6D909E700100240000042425C
:10154000800442420800002000700040224C636882
:1015500003F00C03082B3FF4E2AE00231F4E022AD7
:1015600033602BD1FFF732FB0746236899011FD464
:101570002B6AB3F5803F05D16268A96822F4003276
:101580000A436260696A62680B4322F4741213436F
:10159000636001233360FFF719FB054623689A0156
:1015A0003FF5A7AEFFF712FB401B0228F6D9CDE6A8
:1015B000FFF70CFBC01B0228D7D9C7E6FFF706FBD5
:1015C000054623689B017FF594AEFFF7FFFA401BA9
:1015D0000228F6D9BAE600BF00100240600042427D
:1015E00030B5194B87B002AC03F1100522461868DC
:1015F0005968083303C2AB421446F7D101238DF872
:101600000430022311498DF805304B6803F00C02B9
:10161000082A17D1C3F3834206A80244DB0312F859
:10162000102C0CD54B680A48C3F34043504306AA1C
:10163000134413F8143CB0FBF3F007B030BD054879
:101640005043FAE70248F8E7A01B000800100240E8
:1016500000127A0000093D00544A2DE9F041136858
:10166000054603F007038B420E462AD329688C07F0
:1016700034D4CA0747D44D4A136803F007039E4287
:10168000C0F082802A684A4C12F0040F40F0878034
:10169000130706D563682A6923F4605343EAC2033B
:1016A0006360FFF79DFF6368424AC3F30313D35C93
:1016B000D840414B18600020FFF746FA0020BDE8F3
:1016C000F081136823F007030B431360136803F0E2
:1016D00007039942CAD00120BDE8F081344B11F0D4
:1016E000040F1EBF5A6842F4E0625A60080742BF06
:1016F0005A6842F460525A605A68A86822F0F002B0
:1017000002435A60B5E76A68294C012A23681CD154
:1017100013F4003FDFD0636841F2883823F00303FD
:1017200013436360FFF752FA6B680746012B14D12D
:10173000636803F00C03042B9DD0FFF747FAC01B2E
:101740004045F5D90320BDE8F081022A02D113F00B
:10175000007FDFE713F0020FDCE7022B0FD1636895
:1017600003F00C03082B86D0FFF730FAC01B40456E
:10177000F5D9E7E7FFF72AFAC01B4045E2D86368CE
:1017800013F00C0FF6D176E7136823F00703334309
:101790001360136803F007039E429CD172E76368ED
:1017A000E96823F4E0630B43636071E700200240C3
:1017B00000100240B01B000808000020044B054A3E
:1017C0005B68C3F30223D35C034A1068D8407047B8
:1017D00000100240C01B0008080000201FB5164979
:1017E000FEF7CCFF1549FEF7C1FE4FF08141FEF731
:1017F000C5FF4FF06051FEF7C1FFFFF785F9030AFF
:101800008DF80830B0238DF80A3010238DF80B3096
:1018100000238DF80C304FF0FF338DF80900009352
:1018200002AA0523C0210648FFF778FC6420FFF7D1
:10183000D3F905B05DF804FB0024744900BA5B4895
:101840002C000020102210B588B00DEB0200002102
:1018500000F092F91D4B1E4C9A69204642F010028E
:101860009A619A694FF4005102F010020092009AB6
:101870009A6942F020029A619A6902F0200201926C
:10188000019A9A6942F004029A619A6902F004028C
:101890000292029A9A6942F008029A619B690022B8
:1018A00003F008030393039BFFF7E4FA4FF400539C
:1018B00004930123059300230693022304A92046E1
:1018C0000793FFF7F7F908B010BD00BF0010024002
:1018D0000010014008B50C480C4BDFF834E04FF421
:1018E000804280E80840002302618360C360436156
:1018F0008361C3610362FFF791FB18B1BDE8084043
:1019000000F09CB808BD00BF2C000020005400402F
:10191000A086010010B5044686B01022002102A85E
:1019200000F02AF92268114B9A421CD1104C02A9EE
:10193000A369104843F00803A361A36903F00803F7
:101940000093009BC0230293122303930323059368
:10195000FFF7B0F9E36943F40013E361E36903F4CB
:1019600000130193019B06B010BD00BF005400405E
:1019700000100240000C014010B590B02822002158
:1019800006A800F0F9F80021142201A800F0F4F8EC
:101990004FF480330122022407930E934FF4E01397
:1019A00006A806920A920F930D94FFF78DFC0F2361
:1019B0004FF4806201930023214601A8029403930F
:1019C00004920593FFF748FE10B010BD0000000020
:1019D0002DE9F04114A7D7E90067FFF7D9F8FFF721
:1019E000CBFFFFF72FFFFFF775FF114C114DDFF80D
:1019F00048802046FFF7F2FE40F6B830FFF7ECF8DB
:101A000029462046FFF776F800B144462046FEF707
:101A100003FD32463B46FEF7A1FBFEF751FD0446AF
:101A2000E7E700BFAFF300809A9999999999C93F68
:101A30000000C8420000D4420000BE4270470000CF
:101A40000E4B82B09A6942F001029A619A6902F0E3
:101A500001020092009ADA6942F08052DA61DB6991
:101A6000074A03F080530193019B536823F0E0631E
:101A700043F00073536002B0704700BF0010024093
:101A8000000001407047FEE7FEE7FEE7FEE7704713
:101A900070477047FFF78EB80F4B1A6842F001028B
:101AA0001A6059680D4A0A405A601A6822F0847216
:101AB00022F480321A601A6822F480221A605A686E
:101AC00022F4FE025A604FF41F029A604FF0006247
:101AD000034B9A60704700BF001002400000FFF8FF
:101AE00000ED00E0002103E00B4B5B584350043154
:101AF0000A480B4B42189A42F6D30A4A02E00023E6
:101B000042F8043B084B9A42F9D3FFF7C5FF00F0B7
:101B10000FF8FFF75DFF7047D01B000800000020A2
:101B20000C0000200C00002080000020FEE70000D8
:101B300070B500250C4E0D4CA41BA410A54209D174
:101B400000F022F800250A4E0A4CA41BA410A5425E
:101B500005D170BD56F8253098470135EEE756F8A7
:101B6000253098470135F2E7C81B0008C81B00085C
:101B7000C81B0008CC1B000803460244934200D156
:101B8000704703F8011BF9E7F8B500BFF8BC08BCC3
:101B90009E467047F8B500BFF8BC08BC9E4670472B
:101BA00002030405060708090A0B0C0D0E0F10109E
:101BB00000000000000000000102030406070809FD
:081BC000000000000102030413
:041BC80035010008DB
:041BCC0011010008FB
:0C1BD000010000001000000000A24A0408
:0400000508001AE5F0
:00000001FF
